{"contracts/GameManager.sol":{"GameManager":{"abi":[{"inputs":[],"stateMutability":"nonpayable","type":"constructor"},{"inputs":[],"name":"EnforcedPause","type":"error"},{"inputs":[],"name":"ExpectedPause","type":"error"},{"inputs":[{"internalType":"address","name":"owner","type":"address"}],"name":"OwnableInvalidOwner","type":"error"},{"inputs":[{"internalType":"address","name":"account","type":"address"}],"name":"OwnableUnauthorizedAccount","type":"error"},{"inputs":[],"name":"ReentrancyGuardReentrantCall","type":"error"},{"anonymous":false,"inputs":[{"indexed":true,"internalType":"uint256","name":"gameId","type":"uint256"},{"indexed":true,"internalType":"address","name":"player","type":"address"},{"indexed":false,"internalType":"enum GameManager.GameType","name":"gameType","type":"uint8"},{"indexed":false,"internalType":"uint256","name":"wager","type":"uint256"}],"name":"GameCreated","type":"event"},{"anonymous":false,"inputs":[{"indexed":true,"internalType":"uint256","name":"gameId","type":"uint256"},{"indexed":true,"internalType":"address","name":"player","type":"address"},{"indexed":false,"internalType":"uint256","name":"payout","type":"uint256"},{"indexed":false,"internalType":"bool","name":"won","type":"bool"}],"name":"GameResolved","type":"event"},{"anonymous":false,"inputs":[{"indexed":false,"internalType":"uint256","name":"amount","type":"uint256"}],"name":"HouseDeposit","type":"event"},{"anonymous":false,"inputs":[{"indexed":false,"internalType":"uint256","name":"amount","type":"uint256"}],"name":"HouseWithdraw","type":"event"},{"anonymous":false,"inputs":[{"indexed":true,"internalType":"address","name":"previousOwner","type":"address"},{"indexed":true,"internalType":"address","name":"newOwner","type":"address"}],"name":"OwnershipTransferred","type":"event"},{"anonymous":false,"inputs":[{"indexed":false,"internalType":"address","name":"account","type":"address"}],"name":"Paused","type":"event"},{"anonymous":false,"inputs":[{"indexed":true,"internalType":"address","name":"oldApp","type":"address"},{"indexed":true,"internalType":"address","name":"newApp","type":"address"}],"name":"ROFLAppUpdated","type":"event"},{"anonymous":false,"inputs":[{"indexed":false,"internalType":"address","name":"account","type":"address"}],"name":"Unpaused","type":"event"},{"inputs":[],"name":"depositHouse","outputs":[],"stateMutability":"payable","type":"function"},{"inputs":[],"name":"gameCounter","outputs":[{"internalType":"uint256","name":"","type":"uint256"}],"stateMutability":"view","type":"function"},{"inputs":[{"internalType":"uint256","name":"","type":"uint256"}],"name":"games","outputs":[{"internalType":"address","name":"player","type":"address"},{"internalType":"enum GameManager.GameType","name":"gameType","type":"uint8"},{"internalType":"uint256","name":"wager","type":"uint256"},{"internalType":"uint256","name":"timestamp","type":"uint256"},{"internalType":"enum GameManager.GameStatus","name":"status","type":"uint8"},{"internalType":"uint256","name":"payout","type":"uint256"},{"internalType":"uint256","name":"multiplier","type":"uint256"}],"stateMutability":"view","type":"function"},{"inputs":[{"internalType":"uint256","name":"gameId","type":"uint256"}],"name":"getGame","outputs":[{"components":[{"internalType":"address","name":"player","type":"address"},{"internalType":"enum GameManager.GameType","name":"gameType","type":"uint8"},{"internalType":"uint256","name":"wager","type":"uint256"},{"internalType":"uint256","name":"timestamp","type":"uint256"},{"internalType":"enum GameManager.GameStatus","name":"status","type":"uint8"},{"internalType":"uint256","name":"payout","type":"uint256"},{"internalType":"uint256","name":"multiplier","type":"uint256"}],"internalType":"struct GameManager.GameRequest","name":"","type":"tuple"}],"stateMutability":"view","type":"function"},{"inputs":[],"name":"getStats","outputs":[{"internalType":"uint256","name":"","type":"uint256"},{"internalType":"uint256","name":"","type":"uint256"},{"internalType":"uint256","name":"","type":"uint256"},{"internalType":"uint256","name":"","type":"uint256"}],"stateMutability":"view","type":"function"},{"inputs":[],"name":"houseBalance","outputs":[{"internalType":"uint256","name":"","type":"uint256"}],"stateMutability":"view","type":"function"},{"inputs":[{"internalType":"enum GameManager.GameType","name":"","type":"uint8"}],"name":"minWagers","outputs":[{"internalType":"uint256","name":"","type":"uint256"}],"stateMutability":"view","type":"function"},{"inputs":[],"name":"owner","outputs":[{"internalType":"address","name":"","type":"address"}],"stateMutability":"view","type":"function"},{"inputs":[],"name":"pause","outputs":[],"stateMutability":"nonpayable","type":"function"},{"inputs":[],"name":"paused","outputs":[{"internalType":"bool","name":"","type":"bool"}],"stateMutability":"view","type":"function"},{"inputs":[],"name":"playCoinFlip","outputs":[],"stateMutability":"payable","type":"function"},{"inputs":[{"internalType":"uint256","name":"multiplier","type":"uint256"}],"name":"playDiceRoll","outputs":[],"stateMutability":"payable","type":"function"},{"inputs":[],"name":"playMysteryBox","outputs":[],"stateMutability":"payable","type":"function"},{"inputs":[],"name":"renounceOwnership","outputs":[],"stateMutability":"nonpayable","type":"function"},{"inputs":[{"internalType":"uint256","name":"gameId","type":"uint256"},{"internalType":"bool","name":"won","type":"bool"},{"internalType":"uint256","name":"payout","type":"uint256"}],"name":"resolveGame","outputs":[],"stateMutability":"nonpayable","type":"function"},{"inputs":[],"name":"roflApp","outputs":[{"internalType":"address","name":"","type":"address"}],"stateMutability":"view","type":"function"},{"inputs":[{"internalType":"address","name":"_roflApp","type":"address"}],"name":"setROFLApp","outputs":[],"stateMutability":"nonpayable","type":"function"},{"inputs":[],"name":"totalPaidOut","outputs":[{"internalType":"uint256","name":"","type":"uint256"}],"stateMutability":"view","type":"function"},{"inputs":[],"name":"totalWagered","outputs":[{"internalType":"uint256","name":"","type":"uint256"}],"stateMutability":"view","type":"function"},{"inputs":[{"internalType":"address","name":"newOwner","type":"address"}],"name":"transferOwnership","outputs":[],"stateMutability":"nonpayable","type":"function"},{"inputs":[],"name":"unpause","outputs":[],"stateMutability":"nonpayable","type":"function"},{"inputs":[{"internalType":"uint256","name":"amount","type":"uint256"}],"name":"withdrawHouse","outputs":[],"stateMutability":"nonpayable","type":"function"}],"evm":{"bytecode":{"linkReferences":{},"object":"608060405234801561001057600080fd5b50338061003757604051631e4fbdf760e01b81526000600482015260240160405180910390fd5b610040816100f1565b5060018055600960205267016345785d8a00007fec8156718a8372b1db44bb411437d0870f3e3790d4a08526d024ce1b0b668f6b8190557f92e85d02570a8092d09a6e3a57665bc3815a2699a4074001bf1ccabf660f5a368190557f6cde3cea4b3a3fb2488b2808bae7556f4a405e50f65e1794383bc026131b13c355600360005266b1a2bc2ec500007fc575c31fea594a6eb97c8e9d3f9caee4c16218c6ef37e923234c0fe9014a61e755610141565b600080546001600160a01b038381166001600160a01b0319831681178455604051919092169283917f8be0079c531659141344cd1fd0a4f28419497f9722a3daafe3b4186f6b6457e09190a35050565b6114f1806101506000396000f3fe6080604052600436106101355760003560e01c8063715018a6116100ab578063a2f77bcc1161006f578063a2f77bcc1461035d578063a8636b9b1461038a578063c59d484714610392578063e3f83218146103cb578063f2fde38b146103eb578063fbd26fa31461040b57600080fd5b8063715018a6146102c75780638456cb59146102dc57806386b3a870146102f15780638a14f12c146103295780638da5cb5b1461033f57600080fd5b80633f4ba83a116100fd5780633f4ba83a14610224578063557515801461023957806355f1f9f11461024157806358d9f8da146102615780635c975abb1461028e57806367084eb3146102b157600080fd5b8063117a5b901461013a5780631357e1dc146101c05780631806b3c2146101e457806323218411146101ee5780632e0be39a1461020e575b600080fd5b34801561014657600080fd5b506101a4610155366004611210565b60036020819052600091825260409091208054600182015460028301549383015460048401546005909401546001600160a01b0384169560ff600160a01b909504851695939490939216919087565b6040516101b79796959493929190611263565b60405180910390f35b3480156101cc57600080fd5b506101d660085481565b6040519081526020016101b7565b6101ec61041e565b005b3480156101fa57600080fd5b506101ec610209366004611210565b61061b565b34801561021a57600080fd5b506101d660045481565b34801561023057600080fd5b506101ec610760565b6101ec610770565b34801561024d57600080fd5b506101ec61025c3660046112ae565b610923565b34801561026d57600080fd5b506101d661027c3660046112de565b60096020526000908152604090205481565b34801561029a57600080fd5b5060025460ff1660405190151581526020016101b7565b3480156102bd57600080fd5b506101d660065481565b3480156102d357600080fd5b506101ec6109cf565b3480156102e857600080fd5b506101ec6109e1565b3480156102fd57600080fd5b50600554610311906001600160a01b031681565b6040516001600160a01b0390911681526020016101b7565b34801561033557600080fd5b506101d660075481565b34801561034b57600080fd5b506000546001600160a01b0316610311565b34801561036957600080fd5b5061037d610378366004611210565b6109f1565b6040516101b791906112ff565b6101ec610af0565b34801561039e57600080fd5b506004546007546008546006546040805194855260208501939093529183015260608201526080016101b7565b3480156103d757600080fd5b506101ec6103e6366004611365565b610b3d565b3480156103f757600080fd5b506101ec6104063660046112ae565b610e06565b6101ec610419366004611210565b610e41565b610426611098565b61042e6110c2565b600160005260096020527f92e85d02570a8092d09a6e3a57665bc3815a2699a4074001bf1ccabf660f5a36543410156104825760405162461bcd60e51b8152600401610479906113a2565b60405180910390fd5b61048d3460026113df565b60065410156104ae5760405162461bcd60e51b8152600401610479906113fc565b60048054600091826104bf8361143f565b909155506040805160e081019091523381529091506020810160018152346020820152426040820152606001600081526000602080830182905260c8604093840152848252600380825292909120835181546001600160a01b039091166001600160a01b0319821681178355928501519193919284926001600160a81b03199092161790600160a01b90849081111561055a5761055a611229565b0217905550604082015181600101556060820151816002015560808201518160030160006101000a81548160ff0219169083600281111561059d5761059d611229565b021790555060a0820151816004015560c0820151816005015590505034600760008282546105cb9190611458565b9091555050604051339082907fce7afad46ab3446a50492edf65c62119da1a4def9df32e797c96b27a9470f4119061060790600190349061146b565b60405180910390a35061061960018055565b565b6106236110e6565b61062b611098565b60065481111561067d5760405162461bcd60e51b815260206004820152601a60248201527f496e73756666696369656e7420686f7573652062616c616e63650000000000006044820152606401610479565b806006600082825461068f9190611486565b9091555050604051600090339083908381818185875af1925050503d80600081146106d6576040519150601f19603f3d011682016040523d82523d6000602084013e6106db565b606091505b50509050806107205760405162461bcd60e51b815260206004820152601160248201527015da5d1a191c985dd85b0819985a5b1959607a1b6044820152606401610479565b6040518281527f0cb21f4b914302d351935752deb87c08508e3d50fc781b110b0879ce5df593a99060200160405180910390a15061075d60018055565b50565b6107686110e6565b610619611113565b610778611098565b6107806110c2565b6000805260096020527fec8156718a8372b1db44bb411437d0870f3e3790d4a08526d024ce1b0b668f6b543410156107ca5760405162461bcd60e51b8152600401610479906113a2565b60048054600091826107db8361143f565b909155506040805160e08101909152338152909150602081016000815234602082015242604082015260600160008152600060208083018290526040928301829052848252600380825292909120835181546001600160a01b039091166001600160a01b0319821681178355928501519193919284926001600160a81b03199092161790600160a01b90849081111561087657610876611229565b0217905550604082015181600101556060820151816002015560808201518160030160006101000a81548160ff021916908360028111156108b9576108b9611229565b021790555060a0820151816004015560c0820151816005015590505034600760008282546108e79190611458565b9091555050604051339082907fce7afad46ab3446a50492edf65c62119da1a4def9df32e797c96b27a9470f4119061060790600090349061146b565b61092b6110e6565b6001600160a01b0381166109735760405162461bcd60e51b815260206004820152600f60248201526e496e76616c6964206164647265737360881b6044820152606401610479565b6005546040516001600160a01b038084169216907fdc8eb53b68498632af49f2ce795bc913f0241c7bc3f7900d6d0d3e175357dbcc90600090a3600580546001600160a01b0319166001600160a01b0392909216919091179055565b6109d76110e6565b6106196000611160565b6109e96110e6565b6106196111b0565b610a316040805160e08101825260008082526020820181905291810182905260608101829052906080820190815260200160008152602001600081525090565b600082815260036020818152604092839020835160e0810190945280546001600160a01b0381168552909291840191600160a01b90910460ff1690811115610a7b57610a7b611229565b6003811115610a8c57610a8c611229565b8152600182015460208201526002808301546040830152600383015460609092019160ff1690811115610ac157610ac1611229565b6002811115610ad257610ad2611229565b81526004820154602082015260059091015460409091015292915050565b3460066000828254610b029190611458565b90915550506040513481527f82cb720161b49803cf74bde7272eeb4a7b5a2d39143c1f544d883a93548f8fbc906020015b60405180910390a1565b610b45611098565b6005546001600160a01b03163314610b9f5760405162461bcd60e51b815260206004820152601960248201527f4f6e6c7920524f464c206170702063616e207265736f6c7665000000000000006044820152606401610479565b60008381526003602081905260408220015460ff166002811115610bc557610bc5611229565b14610c055760405162461bcd60e51b815260206004820152601060248201526f47616d65206e6f742070656e64696e6760801b6044820152606401610479565b6000838152600360208190526040909120908101805460ff1916600117905560048101829055828015610c385750600082115b15610d915781471015610c845760405162461bcd60e51b8152602060048201526014602482015273496e73756666696369656e742062616c616e636560601b6044820152606401610479565b8160086000828254610c969190611458565b90915550506001810154821115610cd2576001810154610cb69083611486565b60066000828254610cc79190611486565b90915550610cf99050565b818160010154610ce29190611486565b60066000828254610cf39190611458565b90915550505b80546040516000916001600160a01b03169084908381818185875af1925050503d8060008114610d45576040519150601f19603f3d011682016040523d82523d6000602084013e610d4a565b606091505b5050905080610d8b5760405162461bcd60e51b815260206004820152600d60248201526c14185e5bdd5d0819985a5b1959609a1b6044820152606401610479565b50610dad565b806001015460066000828254610da79190611458565b90915550505b80546040805184815285151560208201526001600160a01b039092169186917fdce9321027c0ce65e070e4512ae518d2a4fdace9c65a486ebcaad53d63884ebf910160405180910390a350610e0160018055565b505050565b610e0e6110e6565b6001600160a01b038116610e3857604051631e4fbdf760e01b815260006004820152602401610479565b61075d81611160565b610e49611098565b610e516110c2565b600260005260096020527f6cde3cea4b3a3fb2488b2808bae7556f4a405e50f65e1794383bc026131b13c354341015610e9c5760405162461bcd60e51b8152600401610479906113a2565b606e8110158015610eaf57506102588111155b610ef05760405162461bcd60e51b815260206004820152601260248201527124b73b30b634b21036bab63a34b83634b2b960711b6044820152606401610479565b60006064610efe83346113df565b610f089190611499565b9050806006541015610f2c5760405162461bcd60e51b8152600401610479906113fc565b6004805460009182610f3d8361143f565b909155506040805160e08101909152338152909150602081016002815234602082015242604082015260600160008152600060208083018290526040928301879052848252600380825292909120835181546001600160a01b039091166001600160a01b0319821681178355928501519193919284926001600160a81b03199092161790600160a01b908490811115610fd857610fd8611229565b0217905550604082015181600101556060820151816002015560808201518160030160006101000a81548160ff0219169083600281111561101b5761101b611229565b021790555060a0820151816004015560c0820151816005015590505034600760008282546110499190611458565b9091555050604051339082907fce7afad46ab3446a50492edf65c62119da1a4def9df32e797c96b27a9470f4119061108590600290349061146b565b60405180910390a3505061075d60018055565b6002600154036110bb57604051633ee5aeb560e01b815260040160405180910390fd5b6002600155565b60025460ff16156106195760405163d93c066560e01b815260040160405180910390fd5b6000546001600160a01b031633146106195760405163118cdaa760e01b8152336004820152602401610479565b61111b6111ed565b6002805460ff191690557f5db9ee0a495bf2e6ff9c91a7834c1ba4fdd244a5e8aa4e537bd38aeae4b073aa335b6040516001600160a01b039091168152602001610b33565b600080546001600160a01b038381166001600160a01b0319831681178455604051919092169283917f8be0079c531659141344cd1fd0a4f28419497f9722a3daafe3b4186f6b6457e09190a35050565b6111b86110c2565b6002805460ff191660011790557f62e78cea01bee320cd4e420270b5ea74000d11b0c9f74754ebdbfc544b05a2586111483390565b60025460ff1661061957604051638dfc202b60e01b815260040160405180910390fd5b60006020828403121561122257600080fd5b5035919050565b634e487b7160e01b600052602160045260246000fd5b6004811061124f5761124f611229565b9052565b6003811061124f5761124f611229565b6001600160a01b038816815260e08101611280602083018961123f565b8660408301528560608301526112996080830186611253565b60a082019390935260c0015295945050505050565b6000602082840312156112c057600080fd5b81356001600160a01b03811681146112d757600080fd5b9392505050565b6000602082840312156112f057600080fd5b8135600481106112d757600080fd5b81516001600160a01b0316815260208083015160e08301916113239084018261123f565b506040830151604083015260608301516060830152608083015161134a6080840182611253565b5060a083015160a083015260c083015160c083015292915050565b60008060006060848603121561137a57600080fd5b833592506020840135801515811461139157600080fd5b929592945050506040919091013590565b6020808252600d908201526c576167657220746f6f206c6f7760981b604082015260600190565b634e487b7160e01b600052601160045260246000fd5b80820281158282048414176113f6576113f66113c9565b92915050565b60208082526023908201527f486f7573652063616e6e6f7420636f76657220706f74656e7469616c207061796040820152621bdd5d60ea1b606082015260800190565b600060018201611451576114516113c9565b5060010190565b808201808211156113f6576113f66113c9565b60408101611479828561123f565b8260208301529392505050565b818103818111156113f6576113f66113c9565b6000826114b657634e487b7160e01b600052601260045260246000fd5b50049056fea264697066735822122099634ede5f05acc702c2db6893be00dc15b910ca738f987fcd17cce3af9f5b1a64736f6c63430008140033","opcodes":"PUSH1 0x80 PUSH1 0x40 MSTORE CALLVALUE DUP1 ISZERO PUSH2 0x10 JUMPI PUSH1 0x0 DUP1 REVERT JUMPDEST POP CALLER DUP1 PUSH2 0x37 JUMPI PUSH1 0x40 MLOAD PUSH4 0x1E4FBDF7 PUSH1 0xE0 SHL DUP2 MSTORE PUSH1 0x0 PUSH1 0x4 DUP3 ADD MSTORE PUSH1 0x24 ADD PUSH1 0x40 MLOAD DUP1 SWAP2 SUB SWAP1 REVERT JUMPDEST PUSH2 0x40 DUP2 PUSH2 0xF1 JUMP JUMPDEST POP PUSH1 0x1 DUP1 SSTORE PUSH1 0x9 PUSH1 0x20 MSTORE PUSH8 0x16345785D8A0000 PUSH32 0xEC8156718A8372B1DB44BB411437D0870F3E3790D4A08526D024CE1B0B668F6B DUP2 SWAP1 SSTORE PUSH32 0x92E85D02570A8092D09A6E3A57665BC3815A2699A4074001BF1CCABF660F5A36 DUP2 SWAP1 SSTORE PUSH32 0x6CDE3CEA4B3A3FB2488B2808BAE7556F4A405E50F65E1794383BC026131B13C3 SSTORE PUSH1 0x3 PUSH1 0x0 MSTORE PUSH7 0xB1A2BC2EC50000 PUSH32 0xC575C31FEA594A6EB97C8E9D3F9CAEE4C16218C6EF37E923234C0FE9014A61E7 SSTORE PUSH2 0x141 JUMP JUMPDEST PUSH1 0x0 DUP1 SLOAD PUSH1 0x1 PUSH1 0x1 PUSH1 0xA0 SHL SUB DUP4 DUP2 AND PUSH1 0x1 PUSH1 0x1 PUSH1 0xA0 SHL SUB NOT DUP4 AND DUP2 OR DUP5 SSTORE PUSH1 0x40 MLOAD SWAP2 SWAP1 SWAP3 AND SWAP3 DUP4 SWAP2 PUSH32 0x8BE0079C531659141344CD1FD0A4F28419497F9722A3DAAFE3B4186F6B6457E0 SWAP2 SWAP1 LOG3 POP POP JUMP JUMPDEST PUSH2 0x14F1 DUP1 PUSH2 0x150 PUSH1 0x0 CODECOPY PUSH1 0x0 RETURN INVALID PUSH1 0x80 PUSH1 0x40 MSTORE PUSH1 0x4 CALLDATASIZE LT PUSH2 0x135 JUMPI PUSH1 0x0 CALLDATALOAD PUSH1 0xE0 SHR DUP1 PUSH4 0x715018A6 GT PUSH2 0xAB JUMPI DUP1 PUSH4 0xA2F77BCC GT PUSH2 0x6F JUMPI DUP1 PUSH4 0xA2F77BCC EQ PUSH2 0x35D JUMPI DUP1 PUSH4 0xA8636B9B EQ PUSH2 0x38A JUMPI DUP1 PUSH4 0xC59D4847 EQ PUSH2 0x392 JUMPI DUP1 PUSH4 0xE3F83218 EQ PUSH2 0x3CB JUMPI DUP1 PUSH4 0xF2FDE38B EQ PUSH2 0x3EB JUMPI DUP1 PUSH4 0xFBD26FA3 EQ PUSH2 0x40B JUMPI PUSH1 0x0 DUP1 REVERT JUMPDEST DUP1 PUSH4 0x715018A6 EQ PUSH2 0x2C7 JUMPI DUP1 PUSH4 0x8456CB59 EQ PUSH2 0x2DC JUMPI DUP1 PUSH4 0x86B3A870 EQ PUSH2 0x2F1 JUMPI DUP1 PUSH4 0x8A14F12C EQ PUSH2 0x329 JUMPI DUP1 PUSH4 0x8DA5CB5B EQ PUSH2 0x33F JUMPI PUSH1 0x0 DUP1 REVERT JUMPDEST DUP1 PUSH4 0x3F4BA83A GT PUSH2 0xFD JUMPI DUP1 PUSH4 0x3F4BA83A EQ PUSH2 0x224 JUMPI DUP1 PUSH4 0x55751580 EQ PUSH2 0x239 JUMPI DUP1 PUSH4 0x55F1F9F1 EQ PUSH2 0x241 JUMPI DUP1 PUSH4 0x58D9F8DA EQ PUSH2 0x261 JUMPI DUP1 PUSH4 0x5C975ABB EQ PUSH2 0x28E JUMPI DUP1 PUSH4 0x67084EB3 EQ PUSH2 0x2B1 JUMPI PUSH1 0x0 DUP1 REVERT JUMPDEST DUP1 PUSH4 0x117A5B90 EQ PUSH2 0x13A JUMPI DUP1 PUSH4 0x1357E1DC EQ PUSH2 0x1C0 JUMPI DUP1 PUSH4 0x1806B3C2 EQ PUSH2 0x1E4 JUMPI DUP1 PUSH4 0x23218411 EQ PUSH2 0x1EE JUMPI DUP1 PUSH4 0x2E0BE39A EQ PUSH2 0x20E JUMPI JUMPDEST PUSH1 0x0 DUP1 REVERT JUMPDEST CALLVALUE DUP1 ISZERO PUSH2 0x146 JUMPI PUSH1 0x0 DUP1 REVERT JUMPDEST POP PUSH2 0x1A4 PUSH2 0x155 CALLDATASIZE PUSH1 0x4 PUSH2 0x1210 JUMP JUMPDEST PUSH1 0x3 PUSH1 0x20 DUP2 SWAP1 MSTORE PUSH1 0x0 SWAP2 DUP3 MSTORE PUSH1 0x40 SWAP1 SWAP2 KECCAK256 DUP1 SLOAD PUSH1 0x1 DUP3 ADD SLOAD PUSH1 0x2 DUP4 ADD SLOAD SWAP4 DUP4 ADD SLOAD PUSH1 0x4 DUP5 ADD SLOAD PUSH1 0x5 SWAP1 SWAP5 ADD SLOAD PUSH1 0x1 PUSH1 0x1 PUSH1 0xA0 SHL SUB DUP5 AND SWAP6 PUSH1 0xFF PUSH1 0x1 PUSH1 0xA0 SHL SWAP1 SWAP6 DIV DUP6 AND SWAP6 SWAP4 SWAP5 SWAP1 SWAP4 SWAP3 AND SWAP2 SWAP1 DUP8 JUMP JUMPDEST PUSH1 0x40 MLOAD PUSH2 0x1B7 SWAP8 SWAP7 SWAP6 SWAP5 SWAP4 SWAP3 SWAP2 SWAP1 PUSH2 0x1263 JUMP JUMPDEST PUSH1 0x40 MLOAD DUP1 SWAP2 SUB SWAP1 RETURN JUMPDEST CALLVALUE DUP1 ISZERO PUSH2 0x1CC JUMPI PUSH1 0x0 DUP1 REVERT JUMPDEST POP PUSH2 0x1D6 PUSH1 0x8 SLOAD DUP2 JUMP JUMPDEST PUSH1 0x40 MLOAD SWAP1 DUP2 MSTORE PUSH1 0x20 ADD PUSH2 0x1B7 JUMP JUMPDEST PUSH2 0x1EC PUSH2 0x41E JUMP JUMPDEST STOP JUMPDEST CALLVALUE DUP1 ISZERO PUSH2 0x1FA JUMPI PUSH1 0x0 DUP1 REVERT JUMPDEST POP PUSH2 0x1EC PUSH2 0x209 CALLDATASIZE PUSH1 0x4 PUSH2 0x1210 JUMP JUMPDEST PUSH2 0x61B JUMP JUMPDEST CALLVALUE DUP1 ISZERO PUSH2 0x21A JUMPI PUSH1 0x0 DUP1 REVERT JUMPDEST POP PUSH2 0x1D6 PUSH1 0x4 SLOAD DUP2 JUMP JUMPDEST CALLVALUE DUP1 ISZERO PUSH2 0x230 JUMPI PUSH1 0x0 DUP1 REVERT JUMPDEST POP PUSH2 0x1EC PUSH2 0x760 JUMP JUMPDEST PUSH2 0x1EC PUSH2 0x770 JUMP JUMPDEST CALLVALUE DUP1 ISZERO PUSH2 0x24D JUMPI PUSH1 0x0 DUP1 REVERT JUMPDEST POP PUSH2 0x1EC PUSH2 0x25C CALLDATASIZE PUSH1 0x4 PUSH2 0x12AE JUMP JUMPDEST PUSH2 0x923 JUMP JUMPDEST CALLVALUE DUP1 ISZERO PUSH2 0x26D JUMPI PUSH1 0x0 DUP1 REVERT JUMPDEST POP PUSH2 0x1D6 PUSH2 0x27C CALLDATASIZE PUSH1 0x4 PUSH2 0x12DE JUMP JUMPDEST PUSH1 0x9 PUSH1 0x20 MSTORE PUSH1 0x0 SWAP1 DUP2 MSTORE PUSH1 0x40 SWAP1 KECCAK256 SLOAD DUP2 JUMP JUMPDEST CALLVALUE DUP1 ISZERO PUSH2 0x29A JUMPI PUSH1 0x0 DUP1 REVERT JUMPDEST POP PUSH1 0x2 SLOAD PUSH1 0xFF AND PUSH1 0x40 MLOAD SWAP1 ISZERO ISZERO DUP2 MSTORE PUSH1 0x20 ADD PUSH2 0x1B7 JUMP JUMPDEST CALLVALUE DUP1 ISZERO PUSH2 0x2BD JUMPI PUSH1 0x0 DUP1 REVERT JUMPDEST POP PUSH2 0x1D6 PUSH1 0x6 SLOAD DUP2 JUMP JUMPDEST CALLVALUE DUP1 ISZERO PUSH2 0x2D3 JUMPI PUSH1 0x0 DUP1 REVERT JUMPDEST POP PUSH2 0x1EC PUSH2 0x9CF JUMP JUMPDEST CALLVALUE DUP1 ISZERO PUSH2 0x2E8 JUMPI PUSH1 0x0 DUP1 REVERT JUMPDEST POP PUSH2 0x1EC PUSH2 0x9E1 JUMP JUMPDEST CALLVALUE DUP1 ISZERO PUSH2 0x2FD JUMPI PUSH1 0x0 DUP1 REVERT JUMPDEST POP PUSH1 0x5 SLOAD PUSH2 0x311 SWAP1 PUSH1 0x1 PUSH1 0x1 PUSH1 0xA0 SHL SUB AND DUP2 JUMP JUMPDEST PUSH1 0x40 MLOAD PUSH1 0x1 PUSH1 0x1 PUSH1 0xA0 SHL SUB SWAP1 SWAP2 AND DUP2 MSTORE PUSH1 0x20 ADD PUSH2 0x1B7 JUMP JUMPDEST CALLVALUE DUP1 ISZERO PUSH2 0x335 JUMPI PUSH1 0x0 DUP1 REVERT JUMPDEST POP PUSH2 0x1D6 PUSH1 0x7 SLOAD DUP2 JUMP JUMPDEST CALLVALUE DUP1 ISZERO PUSH2 0x34B JUMPI PUSH1 0x0 DUP1 REVERT JUMPDEST POP PUSH1 0x0 SLOAD PUSH1 0x1 PUSH1 0x1 PUSH1 0xA0 SHL SUB AND PUSH2 0x311 JUMP JUMPDEST CALLVALUE DUP1 ISZERO PUSH2 0x369 JUMPI PUSH1 0x0 DUP1 REVERT JUMPDEST POP PUSH2 0x37D PUSH2 0x378 CALLDATASIZE PUSH1 0x4 PUSH2 0x1210 JUMP JUMPDEST PUSH2 0x9F1 JUMP JUMPDEST PUSH1 0x40 MLOAD PUSH2 0x1B7 SWAP2 SWAP1 PUSH2 0x12FF JUMP JUMPDEST PUSH2 0x1EC PUSH2 0xAF0 JUMP JUMPDEST CALLVALUE DUP1 ISZERO PUSH2 0x39E JUMPI PUSH1 0x0 DUP1 REVERT JUMPDEST POP PUSH1 0x4 SLOAD PUSH1 0x7 SLOAD PUSH1 0x8 SLOAD PUSH1 0x6 SLOAD PUSH1 0x40 DUP1 MLOAD SWAP5 DUP6 MSTORE PUSH1 0x20 DUP6 ADD SWAP4 SWAP1 SWAP4 MSTORE SWAP2 DUP4 ADD MSTORE PUSH1 0x60 DUP3 ADD MSTORE PUSH1 0x80 ADD PUSH2 0x1B7 JUMP JUMPDEST CALLVALUE DUP1 ISZERO PUSH2 0x3D7 JUMPI PUSH1 0x0 DUP1 REVERT JUMPDEST POP PUSH2 0x1EC PUSH2 0x3E6 CALLDATASIZE PUSH1 0x4 PUSH2 0x1365 JUMP JUMPDEST PUSH2 0xB3D JUMP JUMPDEST CALLVALUE DUP1 ISZERO PUSH2 0x3F7 JUMPI PUSH1 0x0 DUP1 REVERT JUMPDEST POP PUSH2 0x1EC PUSH2 0x406 CALLDATASIZE PUSH1 0x4 PUSH2 0x12AE JUMP JUMPDEST PUSH2 0xE06 JUMP JUMPDEST PUSH2 0x1EC PUSH2 0x419 CALLDATASIZE PUSH1 0x4 PUSH2 0x1210 JUMP JUMPDEST PUSH2 0xE41 JUMP JUMPDEST PUSH2 0x426 PUSH2 0x1098 JUMP JUMPDEST PUSH2 0x42E PUSH2 0x10C2 JUMP JUMPDEST PUSH1 0x1 PUSH1 0x0 MSTORE PUSH1 0x9 PUSH1 0x20 MSTORE PUSH32 0x92E85D02570A8092D09A6E3A57665BC3815A2699A4074001BF1CCABF660F5A36 SLOAD CALLVALUE LT ISZERO PUSH2 0x482 JUMPI PUSH1 0x40 MLOAD PUSH3 0x461BCD PUSH1 0xE5 SHL DUP2 MSTORE PUSH1 0x4 ADD PUSH2 0x479 SWAP1 PUSH2 0x13A2 JUMP JUMPDEST PUSH1 0x40 MLOAD DUP1 SWAP2 SUB SWAP1 REVERT JUMPDEST PUSH2 0x48D CALLVALUE PUSH1 0x2 PUSH2 0x13DF JUMP JUMPDEST PUSH1 0x6 SLOAD LT ISZERO PUSH2 0x4AE JUMPI PUSH1 0x40 MLOAD PUSH3 0x461BCD PUSH1 0xE5 SHL DUP2 MSTORE PUSH1 0x4 ADD PUSH2 0x479 SWAP1 PUSH2 0x13FC JUMP JUMPDEST PUSH1 0x4 DUP1 SLOAD PUSH1 0x0 SWAP2 DUP3 PUSH2 0x4BF DUP4 PUSH2 0x143F JUMP JUMPDEST SWAP1 SWAP2 SSTORE POP PUSH1 0x40 DUP1 MLOAD PUSH1 0xE0 DUP2 ADD SWAP1 SWAP2 MSTORE CALLER DUP2 MSTORE SWAP1 SWAP2 POP PUSH1 0x20 DUP2 ADD PUSH1 0x1 DUP2 MSTORE CALLVALUE PUSH1 0x20 DUP3 ADD MSTORE TIMESTAMP PUSH1 0x40 DUP3 ADD MSTORE PUSH1 0x60 ADD PUSH1 0x0 DUP2 MSTORE PUSH1 0x0 PUSH1 0x20 DUP1 DUP4 ADD DUP3 SWAP1 MSTORE PUSH1 0xC8 PUSH1 0x40 SWAP4 DUP5 ADD MSTORE DUP5 DUP3 MSTORE PUSH1 0x3 DUP1 DUP3 MSTORE SWAP3 SWAP1 SWAP2 KECCAK256 DUP4 MLOAD DUP2 SLOAD PUSH1 0x1 PUSH1 0x1 PUSH1 0xA0 SHL SUB SWAP1 SWAP2 AND PUSH1 0x1 PUSH1 0x1 PUSH1 0xA0 SHL SUB NOT DUP3 AND DUP2 OR DUP4 SSTORE SWAP3 DUP6 ADD MLOAD SWAP2 SWAP4 SWAP2 SWAP3 DUP5 SWAP3 PUSH1 0x1 PUSH1 0x1 PUSH1 0xA8 SHL SUB NOT SWAP1 SWAP3 AND OR SWAP1 PUSH1 0x1 PUSH1 0xA0 SHL SWAP1 DUP5 SWAP1 DUP2 GT ISZERO PUSH2 0x55A JUMPI PUSH2 0x55A PUSH2 0x1229 JUMP JUMPDEST MUL OR SWAP1 SSTORE POP PUSH1 0x40 DUP3 ADD MLOAD DUP2 PUSH1 0x1 ADD SSTORE PUSH1 0x60 DUP3 ADD MLOAD DUP2 PUSH1 0x2 ADD SSTORE PUSH1 0x80 DUP3 ADD MLOAD DUP2 PUSH1 0x3 ADD PUSH1 0x0 PUSH2 0x100 EXP DUP2 SLOAD DUP2 PUSH1 0xFF MUL NOT AND SWAP1 DUP4 PUSH1 0x2 DUP2 GT ISZERO PUSH2 0x59D JUMPI PUSH2 0x59D PUSH2 0x1229 JUMP JUMPDEST MUL OR SWAP1 SSTORE POP PUSH1 0xA0 DUP3 ADD MLOAD DUP2 PUSH1 0x4 ADD SSTORE PUSH1 0xC0 DUP3 ADD MLOAD DUP2 PUSH1 0x5 ADD SSTORE SWAP1 POP POP CALLVALUE PUSH1 0x7 PUSH1 0x0 DUP3 DUP3 SLOAD PUSH2 0x5CB SWAP2 SWAP1 PUSH2 0x1458 JUMP JUMPDEST SWAP1 SWAP2 SSTORE POP POP PUSH1 0x40 MLOAD CALLER SWAP1 DUP3 SWAP1 PUSH32 0xCE7AFAD46AB3446A50492EDF65C62119DA1A4DEF9DF32E797C96B27A9470F411 SWAP1 PUSH2 0x607 SWAP1 PUSH1 0x1 SWAP1 CALLVALUE SWAP1 PUSH2 0x146B JUMP JUMPDEST PUSH1 0x40 MLOAD DUP1 SWAP2 SUB SWAP1 LOG3 POP PUSH2 0x619 PUSH1 0x1 DUP1 SSTORE JUMP JUMPDEST JUMP JUMPDEST PUSH2 0x623 PUSH2 0x10E6 JUMP JUMPDEST PUSH2 0x62B PUSH2 0x1098 JUMP JUMPDEST PUSH1 0x6 SLOAD DUP2 GT ISZERO PUSH2 0x67D JUMPI PUSH1 0x40 MLOAD PUSH3 0x461BCD PUSH1 0xE5 SHL DUP2 MSTORE PUSH1 0x20 PUSH1 0x4 DUP3 ADD MSTORE PUSH1 0x1A PUSH1 0x24 DUP3 ADD MSTORE PUSH32 0x496E73756666696369656E7420686F7573652062616C616E6365000000000000 PUSH1 0x44 DUP3 ADD MSTORE PUSH1 0x64 ADD PUSH2 0x479 JUMP JUMPDEST DUP1 PUSH1 0x6 PUSH1 0x0 DUP3 DUP3 SLOAD PUSH2 0x68F SWAP2 SWAP1 PUSH2 0x1486 JUMP JUMPDEST SWAP1 SWAP2 SSTORE POP POP PUSH1 0x40 MLOAD PUSH1 0x0 SWAP1 CALLER SWAP1 DUP4 SWAP1 DUP4 DUP2 DUP2 DUP2 DUP6 DUP8 GAS CALL SWAP3 POP POP POP RETURNDATASIZE DUP1 PUSH1 0x0 DUP2 EQ PUSH2 0x6D6 JUMPI PUSH1 0x40 MLOAD SWAP2 POP PUSH1 0x1F NOT PUSH1 0x3F RETURNDATASIZE ADD AND DUP3 ADD PUSH1 0x40 MSTORE RETURNDATASIZE DUP3 MSTORE RETURNDATASIZE PUSH1 0x0 PUSH1 0x20 DUP5 ADD RETURNDATACOPY PUSH2 0x6DB JUMP JUMPDEST PUSH1 0x60 SWAP2 POP JUMPDEST POP POP SWAP1 POP DUP1 PUSH2 0x720 JUMPI PUSH1 0x40 MLOAD PUSH3 0x461BCD PUSH1 0xE5 SHL DUP2 MSTORE PUSH1 0x20 PUSH1 0x4 DUP3 ADD MSTORE PUSH1 0x11 PUSH1 0x24 DUP3 ADD MSTORE PUSH17 0x15DA5D1A191C985DD85B0819985A5B1959 PUSH1 0x7A SHL PUSH1 0x44 DUP3 ADD MSTORE PUSH1 0x64 ADD PUSH2 0x479 JUMP JUMPDEST PUSH1 0x40 MLOAD DUP3 DUP2 MSTORE PUSH32 0xCB21F4B914302D351935752DEB87C08508E3D50FC781B110B0879CE5DF593A9 SWAP1 PUSH1 0x20 ADD PUSH1 0x40 MLOAD DUP1 SWAP2 SUB SWAP1 LOG1 POP PUSH2 0x75D PUSH1 0x1 DUP1 SSTORE JUMP JUMPDEST POP JUMP JUMPDEST PUSH2 0x768 PUSH2 0x10E6 JUMP JUMPDEST PUSH2 0x619 PUSH2 0x1113 JUMP JUMPDEST PUSH2 0x778 PUSH2 0x1098 JUMP JUMPDEST PUSH2 0x780 PUSH2 0x10C2 JUMP JUMPDEST PUSH1 0x0 DUP1 MSTORE PUSH1 0x9 PUSH1 0x20 MSTORE PUSH32 0xEC8156718A8372B1DB44BB411437D0870F3E3790D4A08526D024CE1B0B668F6B SLOAD CALLVALUE LT ISZERO PUSH2 0x7CA JUMPI PUSH1 0x40 MLOAD PUSH3 0x461BCD PUSH1 0xE5 SHL DUP2 MSTORE PUSH1 0x4 ADD PUSH2 0x479 SWAP1 PUSH2 0x13A2 JUMP JUMPDEST PUSH1 0x4 DUP1 SLOAD PUSH1 0x0 SWAP2 DUP3 PUSH2 0x7DB DUP4 PUSH2 0x143F JUMP JUMPDEST SWAP1 SWAP2 SSTORE POP PUSH1 0x40 DUP1 MLOAD PUSH1 0xE0 DUP2 ADD SWAP1 SWAP2 MSTORE CALLER DUP2 MSTORE SWAP1 SWAP2 POP PUSH1 0x20 DUP2 ADD PUSH1 0x0 DUP2 MSTORE CALLVALUE PUSH1 0x20 DUP3 ADD MSTORE TIMESTAMP PUSH1 0x40 DUP3 ADD MSTORE PUSH1 0x60 ADD PUSH1 0x0 DUP2 MSTORE PUSH1 0x0 PUSH1 0x20 DUP1 DUP4 ADD DUP3 SWAP1 MSTORE PUSH1 0x40 SWAP3 DUP4 ADD DUP3 SWAP1 MSTORE DUP5 DUP3 MSTORE PUSH1 0x3 DUP1 DUP3 MSTORE SWAP3 SWAP1 SWAP2 KECCAK256 DUP4 MLOAD DUP2 SLOAD PUSH1 0x1 PUSH1 0x1 PUSH1 0xA0 SHL SUB SWAP1 SWAP2 AND PUSH1 0x1 PUSH1 0x1 PUSH1 0xA0 SHL SUB NOT DUP3 AND DUP2 OR DUP4 SSTORE SWAP3 DUP6 ADD MLOAD SWAP2 SWAP4 SWAP2 SWAP3 DUP5 SWAP3 PUSH1 0x1 PUSH1 0x1 PUSH1 0xA8 SHL SUB NOT SWAP1 SWAP3 AND OR SWAP1 PUSH1 0x1 PUSH1 0xA0 SHL SWAP1 DUP5 SWAP1 DUP2 GT ISZERO PUSH2 0x876 JUMPI PUSH2 0x876 PUSH2 0x1229 JUMP JUMPDEST MUL OR SWAP1 SSTORE POP PUSH1 0x40 DUP3 ADD MLOAD DUP2 PUSH1 0x1 ADD SSTORE PUSH1 0x60 DUP3 ADD MLOAD DUP2 PUSH1 0x2 ADD SSTORE PUSH1 0x80 DUP3 ADD MLOAD DUP2 PUSH1 0x3 ADD PUSH1 0x0 PUSH2 0x100 EXP DUP2 SLOAD DUP2 PUSH1 0xFF MUL NOT AND SWAP1 DUP4 PUSH1 0x2 DUP2 GT ISZERO PUSH2 0x8B9 JUMPI PUSH2 0x8B9 PUSH2 0x1229 JUMP JUMPDEST MUL OR SWAP1 SSTORE POP PUSH1 0xA0 DUP3 ADD MLOAD DUP2 PUSH1 0x4 ADD SSTORE PUSH1 0xC0 DUP3 ADD MLOAD DUP2 PUSH1 0x5 ADD SSTORE SWAP1 POP POP CALLVALUE PUSH1 0x7 PUSH1 0x0 DUP3 DUP3 SLOAD PUSH2 0x8E7 SWAP2 SWAP1 PUSH2 0x1458 JUMP JUMPDEST SWAP1 SWAP2 SSTORE POP POP PUSH1 0x40 MLOAD CALLER SWAP1 DUP3 SWAP1 PUSH32 0xCE7AFAD46AB3446A50492EDF65C62119DA1A4DEF9DF32E797C96B27A9470F411 SWAP1 PUSH2 0x607 SWAP1 PUSH1 0x0 SWAP1 CALLVALUE SWAP1 PUSH2 0x146B JUMP JUMPDEST PUSH2 0x92B PUSH2 0x10E6 JUMP JUMPDEST PUSH1 0x1 PUSH1 0x1 PUSH1 0xA0 SHL SUB DUP2 AND PUSH2 0x973 JUMPI PUSH1 0x40 MLOAD PUSH3 0x461BCD PUSH1 0xE5 SHL DUP2 MSTORE PUSH1 0x20 PUSH1 0x4 DUP3 ADD MSTORE PUSH1 0xF PUSH1 0x24 DUP3 ADD MSTORE PUSH15 0x496E76616C69642061646472657373 PUSH1 0x88 SHL PUSH1 0x44 DUP3 ADD MSTORE PUSH1 0x64 ADD PUSH2 0x479 JUMP JUMPDEST PUSH1 0x5 SLOAD PUSH1 0x40 MLOAD PUSH1 0x1 PUSH1 0x1 PUSH1 0xA0 SHL SUB DUP1 DUP5 AND SWAP3 AND SWAP1 PUSH32 0xDC8EB53B68498632AF49F2CE795BC913F0241C7BC3F7900D6D0D3E175357DBCC SWAP1 PUSH1 0x0 SWAP1 LOG3 PUSH1 0x5 DUP1 SLOAD PUSH1 0x1 PUSH1 0x1 PUSH1 0xA0 SHL SUB NOT AND PUSH1 0x1 PUSH1 0x1 PUSH1 0xA0 SHL SUB SWAP3 SWAP1 SWAP3 AND SWAP2 SWAP1 SWAP2 OR SWAP1 SSTORE JUMP JUMPDEST PUSH2 0x9D7 PUSH2 0x10E6 JUMP JUMPDEST PUSH2 0x619 PUSH1 0x0 PUSH2 0x1160 JUMP JUMPDEST PUSH2 0x9E9 PUSH2 0x10E6 JUMP JUMPDEST PUSH2 0x619 PUSH2 0x11B0 JUMP JUMPDEST PUSH2 0xA31 PUSH1 0x40 DUP1 MLOAD PUSH1 0xE0 DUP2 ADD DUP3 MSTORE PUSH1 0x0 DUP1 DUP3 MSTORE PUSH1 0x20 DUP3 ADD DUP2 SWAP1 MSTORE SWAP2 DUP2 ADD DUP3 SWAP1 MSTORE PUSH1 0x60 DUP2 ADD DUP3 SWAP1 MSTORE SWAP1 PUSH1 0x80 DUP3 ADD SWAP1 DUP2 MSTORE PUSH1 0x20 ADD PUSH1 0x0 DUP2 MSTORE PUSH1 0x20 ADD PUSH1 0x0 DUP2 MSTORE POP SWAP1 JUMP JUMPDEST PUSH1 0x0 DUP3 DUP2 MSTORE PUSH1 0x3 PUSH1 0x20 DUP2 DUP2 MSTORE PUSH1 0x40 SWAP3 DUP4 SWAP1 KECCAK256 DUP4 MLOAD PUSH1 0xE0 DUP2 ADD SWAP1 SWAP5 MSTORE DUP1 SLOAD PUSH1 0x1 PUSH1 0x1 PUSH1 0xA0 SHL SUB DUP2 AND DUP6 MSTORE SWAP1 SWAP3 SWAP2 DUP5 ADD SWAP2 PUSH1 0x1 PUSH1 0xA0 SHL SWAP1 SWAP2 DIV PUSH1 0xFF AND SWAP1 DUP2 GT ISZERO PUSH2 0xA7B JUMPI PUSH2 0xA7B PUSH2 0x1229 JUMP JUMPDEST PUSH1 0x3 DUP2 GT ISZERO PUSH2 0xA8C JUMPI PUSH2 0xA8C PUSH2 0x1229 JUMP JUMPDEST DUP2 MSTORE PUSH1 0x1 DUP3 ADD SLOAD PUSH1 0x20 DUP3 ADD MSTORE PUSH1 0x2 DUP1 DUP4 ADD SLOAD PUSH1 0x40 DUP4 ADD MSTORE PUSH1 0x3 DUP4 ADD SLOAD PUSH1 0x60 SWAP1 SWAP3 ADD SWAP2 PUSH1 0xFF AND SWAP1 DUP2 GT ISZERO PUSH2 0xAC1 JUMPI PUSH2 0xAC1 PUSH2 0x1229 JUMP JUMPDEST PUSH1 0x2 DUP2 GT ISZERO PUSH2 0xAD2 JUMPI PUSH2 0xAD2 PUSH2 0x1229 JUMP JUMPDEST DUP2 MSTORE PUSH1 0x4 DUP3 ADD SLOAD PUSH1 0x20 DUP3 ADD MSTORE PUSH1 0x5 SWAP1 SWAP2 ADD SLOAD PUSH1 0x40 SWAP1 SWAP2 ADD MSTORE SWAP3 SWAP2 POP POP JUMP JUMPDEST CALLVALUE PUSH1 0x6 PUSH1 0x0 DUP3 DUP3 SLOAD PUSH2 0xB02 SWAP2 SWAP1 PUSH2 0x1458 JUMP JUMPDEST SWAP1 SWAP2 SSTORE POP POP PUSH1 0x40 MLOAD CALLVALUE DUP2 MSTORE PUSH32 0x82CB720161B49803CF74BDE7272EEB4A7B5A2D39143C1F544D883A93548F8FBC SWAP1 PUSH1 0x20 ADD JUMPDEST PUSH1 0x40 MLOAD DUP1 SWAP2 SUB SWAP1 LOG1 JUMP JUMPDEST PUSH2 0xB45 PUSH2 0x1098 JUMP JUMPDEST PUSH1 0x5 SLOAD PUSH1 0x1 PUSH1 0x1 PUSH1 0xA0 SHL SUB AND CALLER EQ PUSH2 0xB9F JUMPI PUSH1 0x40 MLOAD PUSH3 0x461BCD PUSH1 0xE5 SHL DUP2 MSTORE PUSH1 0x20 PUSH1 0x4 DUP3 ADD MSTORE PUSH1 0x19 PUSH1 0x24 DUP3 ADD MSTORE PUSH32 0x4F6E6C7920524F464C206170702063616E207265736F6C766500000000000000 PUSH1 0x44 DUP3 ADD MSTORE PUSH1 0x64 ADD PUSH2 0x479 JUMP JUMPDEST PUSH1 0x0 DUP4 DUP2 MSTORE PUSH1 0x3 PUSH1 0x20 DUP2 SWAP1 MSTORE PUSH1 0x40 DUP3 KECCAK256 ADD SLOAD PUSH1 0xFF AND PUSH1 0x2 DUP2 GT ISZERO PUSH2 0xBC5 JUMPI PUSH2 0xBC5 PUSH2 0x1229 JUMP JUMPDEST EQ PUSH2 0xC05 JUMPI PUSH1 0x40 MLOAD PUSH3 0x461BCD PUSH1 0xE5 SHL DUP2 MSTORE PUSH1 0x20 PUSH1 0x4 DUP3 ADD MSTORE PUSH1 0x10 PUSH1 0x24 DUP3 ADD MSTORE PUSH16 0x47616D65206E6F742070656E64696E67 PUSH1 0x80 SHL PUSH1 0x44 DUP3 ADD MSTORE PUSH1 0x64 ADD PUSH2 0x479 JUMP JUMPDEST PUSH1 0x0 DUP4 DUP2 MSTORE PUSH1 0x3 PUSH1 0x20 DUP2 SWAP1 MSTORE PUSH1 0x40 SWAP1 SWAP2 KECCAK256 SWAP1 DUP2 ADD DUP1 SLOAD PUSH1 0xFF NOT AND PUSH1 0x1 OR SWAP1 SSTORE PUSH1 0x4 DUP2 ADD DUP3 SWAP1 SSTORE DUP3 DUP1 ISZERO PUSH2 0xC38 JUMPI POP PUSH1 0x0 DUP3 GT JUMPDEST ISZERO PUSH2 0xD91 JUMPI DUP2 SELFBALANCE LT ISZERO PUSH2 0xC84 JUMPI PUSH1 0x40 MLOAD PUSH3 0x461BCD PUSH1 0xE5 SHL DUP2 MSTORE PUSH1 0x20 PUSH1 0x4 DUP3 ADD MSTORE PUSH1 0x14 PUSH1 0x24 DUP3 ADD MSTORE PUSH20 0x496E73756666696369656E742062616C616E6365 PUSH1 0x60 SHL PUSH1 0x44 DUP3 ADD MSTORE PUSH1 0x64 ADD PUSH2 0x479 JUMP JUMPDEST DUP2 PUSH1 0x8 PUSH1 0x0 DUP3 DUP3 SLOAD PUSH2 0xC96 SWAP2 SWAP1 PUSH2 0x1458 JUMP JUMPDEST SWAP1 SWAP2 SSTORE POP POP PUSH1 0x1 DUP2 ADD SLOAD DUP3 GT ISZERO PUSH2 0xCD2 JUMPI PUSH1 0x1 DUP2 ADD SLOAD PUSH2 0xCB6 SWAP1 DUP4 PUSH2 0x1486 JUMP JUMPDEST PUSH1 0x6 PUSH1 0x0 DUP3 DUP3 SLOAD PUSH2 0xCC7 SWAP2 SWAP1 PUSH2 0x1486 JUMP JUMPDEST SWAP1 SWAP2 SSTORE POP PUSH2 0xCF9 SWAP1 POP JUMP JUMPDEST DUP2 DUP2 PUSH1 0x1 ADD SLOAD PUSH2 0xCE2 SWAP2 SWAP1 PUSH2 0x1486 JUMP JUMPDEST PUSH1 0x6 PUSH1 0x0 DUP3 DUP3 SLOAD PUSH2 0xCF3 SWAP2 SWAP1 PUSH2 0x1458 JUMP JUMPDEST SWAP1 SWAP2 SSTORE POP POP JUMPDEST DUP1 SLOAD PUSH1 0x40 MLOAD PUSH1 0x0 SWAP2 PUSH1 0x1 PUSH1 0x1 PUSH1 0xA0 SHL SUB AND SWAP1 DUP5 SWAP1 DUP4 DUP2 DUP2 DUP2 DUP6 DUP8 GAS CALL SWAP3 POP POP POP RETURNDATASIZE DUP1 PUSH1 0x0 DUP2 EQ PUSH2 0xD45 JUMPI PUSH1 0x40 MLOAD SWAP2 POP PUSH1 0x1F NOT PUSH1 0x3F RETURNDATASIZE ADD AND DUP3 ADD PUSH1 0x40 MSTORE RETURNDATASIZE DUP3 MSTORE RETURNDATASIZE PUSH1 0x0 PUSH1 0x20 DUP5 ADD RETURNDATACOPY PUSH2 0xD4A JUMP JUMPDEST PUSH1 0x60 SWAP2 POP JUMPDEST POP POP SWAP1 POP DUP1 PUSH2 0xD8B JUMPI PUSH1 0x40 MLOAD PUSH3 0x461BCD PUSH1 0xE5 SHL DUP2 MSTORE PUSH1 0x20 PUSH1 0x4 DUP3 ADD MSTORE PUSH1 0xD PUSH1 0x24 DUP3 ADD MSTORE PUSH13 0x14185E5BDD5D0819985A5B1959 PUSH1 0x9A SHL PUSH1 0x44 DUP3 ADD MSTORE PUSH1 0x64 ADD PUSH2 0x479 JUMP JUMPDEST POP PUSH2 0xDAD JUMP JUMPDEST DUP1 PUSH1 0x1 ADD SLOAD PUSH1 0x6 PUSH1 0x0 DUP3 DUP3 SLOAD PUSH2 0xDA7 SWAP2 SWAP1 PUSH2 0x1458 JUMP JUMPDEST SWAP1 SWAP2 SSTORE POP POP JUMPDEST DUP1 SLOAD PUSH1 0x40 DUP1 MLOAD DUP5 DUP2 MSTORE DUP6 ISZERO ISZERO PUSH1 0x20 DUP3 ADD MSTORE PUSH1 0x1 PUSH1 0x1 PUSH1 0xA0 SHL SUB SWAP1 SWAP3 AND SWAP2 DUP7 SWAP2 PUSH32 0xDCE9321027C0CE65E070E4512AE518D2A4FDACE9C65A486EBCAAD53D63884EBF SWAP2 ADD PUSH1 0x40 MLOAD DUP1 SWAP2 SUB SWAP1 LOG3 POP PUSH2 0xE01 PUSH1 0x1 DUP1 SSTORE JUMP JUMPDEST POP POP POP JUMP JUMPDEST PUSH2 0xE0E PUSH2 0x10E6 JUMP JUMPDEST PUSH1 0x1 PUSH1 0x1 PUSH1 0xA0 SHL SUB DUP2 AND PUSH2 0xE38 JUMPI PUSH1 0x40 MLOAD PUSH4 0x1E4FBDF7 PUSH1 0xE0 SHL DUP2 MSTORE PUSH1 0x0 PUSH1 0x4 DUP3 ADD MSTORE PUSH1 0x24 ADD PUSH2 0x479 JUMP JUMPDEST PUSH2 0x75D DUP2 PUSH2 0x1160 JUMP JUMPDEST PUSH2 0xE49 PUSH2 0x1098 JUMP JUMPDEST PUSH2 0xE51 PUSH2 0x10C2 JUMP JUMPDEST PUSH1 0x2 PUSH1 0x0 MSTORE PUSH1 0x9 PUSH1 0x20 MSTORE PUSH32 0x6CDE3CEA4B3A3FB2488B2808BAE7556F4A405E50F65E1794383BC026131B13C3 SLOAD CALLVALUE LT ISZERO PUSH2 0xE9C JUMPI PUSH1 0x40 MLOAD PUSH3 0x461BCD PUSH1 0xE5 SHL DUP2 MSTORE PUSH1 0x4 ADD PUSH2 0x479 SWAP1 PUSH2 0x13A2 JUMP JUMPDEST PUSH1 0x6E DUP2 LT ISZERO DUP1 ISZERO PUSH2 0xEAF JUMPI POP PUSH2 0x258 DUP2 GT ISZERO JUMPDEST PUSH2 0xEF0 JUMPI PUSH1 0x40 MLOAD PUSH3 0x461BCD PUSH1 0xE5 SHL DUP2 MSTORE PUSH1 0x20 PUSH1 0x4 DUP3 ADD MSTORE PUSH1 0x12 PUSH1 0x24 DUP3 ADD MSTORE PUSH18 0x24B73B30B634B21036BAB63A34B83634B2B9 PUSH1 0x71 SHL PUSH1 0x44 DUP3 ADD MSTORE PUSH1 0x64 ADD PUSH2 0x479 JUMP JUMPDEST PUSH1 0x0 PUSH1 0x64 PUSH2 0xEFE DUP4 CALLVALUE PUSH2 0x13DF JUMP JUMPDEST PUSH2 0xF08 SWAP2 SWAP1 PUSH2 0x1499 JUMP JUMPDEST SWAP1 POP DUP1 PUSH1 0x6 SLOAD LT ISZERO PUSH2 0xF2C JUMPI PUSH1 0x40 MLOAD PUSH3 0x461BCD PUSH1 0xE5 SHL DUP2 MSTORE PUSH1 0x4 ADD PUSH2 0x479 SWAP1 PUSH2 0x13FC JUMP JUMPDEST PUSH1 0x4 DUP1 SLOAD PUSH1 0x0 SWAP2 DUP3 PUSH2 0xF3D DUP4 PUSH2 0x143F JUMP JUMPDEST SWAP1 SWAP2 SSTORE POP PUSH1 0x40 DUP1 MLOAD PUSH1 0xE0 DUP2 ADD SWAP1 SWAP2 MSTORE CALLER DUP2 MSTORE SWAP1 SWAP2 POP PUSH1 0x20 DUP2 ADD PUSH1 0x2 DUP2 MSTORE CALLVALUE PUSH1 0x20 DUP3 ADD MSTORE TIMESTAMP PUSH1 0x40 DUP3 ADD MSTORE PUSH1 0x60 ADD PUSH1 0x0 DUP2 MSTORE PUSH1 0x0 PUSH1 0x20 DUP1 DUP4 ADD DUP3 SWAP1 MSTORE PUSH1 0x40 SWAP3 DUP4 ADD DUP8 SWAP1 MSTORE DUP5 DUP3 MSTORE PUSH1 0x3 DUP1 DUP3 MSTORE SWAP3 SWAP1 SWAP2 KECCAK256 DUP4 MLOAD DUP2 SLOAD PUSH1 0x1 PUSH1 0x1 PUSH1 0xA0 SHL SUB SWAP1 SWAP2 AND PUSH1 0x1 PUSH1 0x1 PUSH1 0xA0 SHL SUB NOT DUP3 AND DUP2 OR DUP4 SSTORE SWAP3 DUP6 ADD MLOAD SWAP2 SWAP4 SWAP2 SWAP3 DUP5 SWAP3 PUSH1 0x1 PUSH1 0x1 PUSH1 0xA8 SHL SUB NOT SWAP1 SWAP3 AND OR SWAP1 PUSH1 0x1 PUSH1 0xA0 SHL SWAP1 DUP5 SWAP1 DUP2 GT ISZERO PUSH2 0xFD8 JUMPI PUSH2 0xFD8 PUSH2 0x1229 JUMP JUMPDEST MUL OR SWAP1 SSTORE POP PUSH1 0x40 DUP3 ADD MLOAD DUP2 PUSH1 0x1 ADD SSTORE PUSH1 0x60 DUP3 ADD MLOAD DUP2 PUSH1 0x2 ADD SSTORE PUSH1 0x80 DUP3 ADD MLOAD DUP2 PUSH1 0x3 ADD PUSH1 0x0 PUSH2 0x100 EXP DUP2 SLOAD DUP2 PUSH1 0xFF MUL NOT AND SWAP1 DUP4 PUSH1 0x2 DUP2 GT ISZERO PUSH2 0x101B JUMPI PUSH2 0x101B PUSH2 0x1229 JUMP JUMPDEST MUL OR SWAP1 SSTORE POP PUSH1 0xA0 DUP3 ADD MLOAD DUP2 PUSH1 0x4 ADD SSTORE PUSH1 0xC0 DUP3 ADD MLOAD DUP2 PUSH1 0x5 ADD SSTORE SWAP1 POP POP CALLVALUE PUSH1 0x7 PUSH1 0x0 DUP3 DUP3 SLOAD PUSH2 0x1049 SWAP2 SWAP1 PUSH2 0x1458 JUMP JUMPDEST SWAP1 SWAP2 SSTORE POP POP PUSH1 0x40 MLOAD CALLER SWAP1 DUP3 SWAP1 PUSH32 0xCE7AFAD46AB3446A50492EDF65C62119DA1A4DEF9DF32E797C96B27A9470F411 SWAP1 PUSH2 0x1085 SWAP1 PUSH1 0x2 SWAP1 CALLVALUE SWAP1 PUSH2 0x146B JUMP JUMPDEST PUSH1 0x40 MLOAD DUP1 SWAP2 SUB SWAP1 LOG3 POP POP PUSH2 0x75D PUSH1 0x1 DUP1 SSTORE JUMP JUMPDEST PUSH1 0x2 PUSH1 0x1 SLOAD SUB PUSH2 0x10BB JUMPI PUSH1 0x40 MLOAD PUSH4 0x3EE5AEB5 PUSH1 0xE0 SHL DUP2 MSTORE PUSH1 0x4 ADD PUSH1 0x40 MLOAD DUP1 SWAP2 SUB SWAP1 REVERT JUMPDEST PUSH1 0x2 PUSH1 0x1 SSTORE JUMP JUMPDEST PUSH1 0x2 SLOAD PUSH1 0xFF AND ISZERO PUSH2 0x619 JUMPI PUSH1 0x40 MLOAD PUSH4 0xD93C0665 PUSH1 0xE0 SHL DUP2 MSTORE PUSH1 0x4 ADD PUSH1 0x40 MLOAD DUP1 SWAP2 SUB SWAP1 REVERT JUMPDEST PUSH1 0x0 SLOAD PUSH1 0x1 PUSH1 0x1 PUSH1 0xA0 SHL SUB AND CALLER EQ PUSH2 0x619 JUMPI PUSH1 0x40 MLOAD PUSH4 0x118CDAA7 PUSH1 0xE0 SHL DUP2 MSTORE CALLER PUSH1 0x4 DUP3 ADD MSTORE PUSH1 0x24 ADD PUSH2 0x479 JUMP JUMPDEST PUSH2 0x111B PUSH2 0x11ED JUMP JUMPDEST PUSH1 0x2 DUP1 SLOAD PUSH1 0xFF NOT AND SWAP1 SSTORE PUSH32 0x5DB9EE0A495BF2E6FF9C91A7834C1BA4FDD244A5E8AA4E537BD38AEAE4B073AA CALLER JUMPDEST PUSH1 0x40 MLOAD PUSH1 0x1 PUSH1 0x1 PUSH1 0xA0 SHL SUB SWAP1 SWAP2 AND DUP2 MSTORE PUSH1 0x20 ADD PUSH2 0xB33 JUMP JUMPDEST PUSH1 0x0 DUP1 SLOAD PUSH1 0x1 PUSH1 0x1 PUSH1 0xA0 SHL SUB DUP4 DUP2 AND PUSH1 0x1 PUSH1 0x1 PUSH1 0xA0 SHL SUB NOT DUP4 AND DUP2 OR DUP5 SSTORE PUSH1 0x40 MLOAD SWAP2 SWAP1 SWAP3 AND SWAP3 DUP4 SWAP2 PUSH32 0x8BE0079C531659141344CD1FD0A4F28419497F9722A3DAAFE3B4186F6B6457E0 SWAP2 SWAP1 LOG3 POP POP JUMP JUMPDEST PUSH2 0x11B8 PUSH2 0x10C2 JUMP JUMPDEST PUSH1 0x2 DUP1 SLOAD PUSH1 0xFF NOT AND PUSH1 0x1 OR SWAP1 SSTORE PUSH32 0x62E78CEA01BEE320CD4E420270B5EA74000D11B0C9F74754EBDBFC544B05A258 PUSH2 0x1148 CALLER SWAP1 JUMP JUMPDEST PUSH1 0x2 SLOAD PUSH1 0xFF AND PUSH2 0x619 JUMPI PUSH1 0x40 MLOAD PUSH4 0x8DFC202B PUSH1 0xE0 SHL DUP2 MSTORE PUSH1 0x4 ADD PUSH1 0x40 MLOAD DUP1 SWAP2 SUB SWAP1 REVERT JUMPDEST PUSH1 0x0 PUSH1 0x20 DUP3 DUP5 SUB SLT ISZERO PUSH2 0x1222 JUMPI PUSH1 0x0 DUP1 REVERT JUMPDEST POP CALLDATALOAD SWAP2 SWAP1 POP JUMP JUMPDEST PUSH4 0x4E487B71 PUSH1 0xE0 SHL PUSH1 0x0 MSTORE PUSH1 0x21 PUSH1 0x4 MSTORE PUSH1 0x24 PUSH1 0x0 REVERT JUMPDEST PUSH1 0x4 DUP2 LT PUSH2 0x124F JUMPI PUSH2 0x124F PUSH2 0x1229 JUMP JUMPDEST SWAP1 MSTORE JUMP JUMPDEST PUSH1 0x3 DUP2 LT PUSH2 0x124F JUMPI PUSH2 0x124F PUSH2 0x1229 JUMP JUMPDEST PUSH1 0x1 PUSH1 0x1 PUSH1 0xA0 SHL SUB DUP9 AND DUP2 MSTORE PUSH1 0xE0 DUP2 ADD PUSH2 0x1280 PUSH1 0x20 DUP4 ADD DUP10 PUSH2 0x123F JUMP JUMPDEST DUP7 PUSH1 0x40 DUP4 ADD MSTORE DUP6 PUSH1 0x60 DUP4 ADD MSTORE PUSH2 0x1299 PUSH1 0x80 DUP4 ADD DUP7 PUSH2 0x1253 JUMP JUMPDEST PUSH1 0xA0 DUP3 ADD SWAP4 SWAP1 SWAP4 MSTORE PUSH1 0xC0 ADD MSTORE SWAP6 SWAP5 POP POP POP POP POP JUMP JUMPDEST PUSH1 0x0 PUSH1 0x20 DUP3 DUP5 SUB SLT ISZERO PUSH2 0x12C0 JUMPI PUSH1 0x0 DUP1 REVERT JUMPDEST DUP2 CALLDATALOAD PUSH1 0x1 PUSH1 0x1 PUSH1 0xA0 SHL SUB DUP2 AND DUP2 EQ PUSH2 0x12D7 JUMPI PUSH1 0x0 DUP1 REVERT JUMPDEST SWAP4 SWAP3 POP POP POP JUMP JUMPDEST PUSH1 0x0 PUSH1 0x20 DUP3 DUP5 SUB SLT ISZERO PUSH2 0x12F0 JUMPI PUSH1 0x0 DUP1 REVERT JUMPDEST DUP2 CALLDATALOAD PUSH1 0x4 DUP2 LT PUSH2 0x12D7 JUMPI PUSH1 0x0 DUP1 REVERT JUMPDEST DUP2 MLOAD PUSH1 0x1 PUSH1 0x1 PUSH1 0xA0 SHL SUB AND DUP2 MSTORE PUSH1 0x20 DUP1 DUP4 ADD MLOAD PUSH1 0xE0 DUP4 ADD SWAP2 PUSH2 0x1323 SWAP1 DUP5 ADD DUP3 PUSH2 0x123F JUMP JUMPDEST POP PUSH1 0x40 DUP4 ADD MLOAD PUSH1 0x40 DUP4 ADD MSTORE PUSH1 0x60 DUP4 ADD MLOAD PUSH1 0x60 DUP4 ADD MSTORE PUSH1 0x80 DUP4 ADD MLOAD PUSH2 0x134A PUSH1 0x80 DUP5 ADD DUP3 PUSH2 0x1253 JUMP JUMPDEST POP PUSH1 0xA0 DUP4 ADD MLOAD PUSH1 0xA0 DUP4 ADD MSTORE PUSH1 0xC0 DUP4 ADD MLOAD PUSH1 0xC0 DUP4 ADD MSTORE SWAP3 SWAP2 POP POP JUMP JUMPDEST PUSH1 0x0 DUP1 PUSH1 0x0 PUSH1 0x60 DUP5 DUP7 SUB SLT ISZERO PUSH2 0x137A JUMPI PUSH1 0x0 DUP1 REVERT JUMPDEST DUP4 CALLDATALOAD SWAP3 POP PUSH1 0x20 DUP5 ADD CALLDATALOAD DUP1 ISZERO ISZERO DUP2 EQ PUSH2 0x1391 JUMPI PUSH1 0x0 DUP1 REVERT JUMPDEST SWAP3 SWAP6 SWAP3 SWAP5 POP POP POP PUSH1 0x40 SWAP2 SWAP1 SWAP2 ADD CALLDATALOAD SWAP1 JUMP JUMPDEST PUSH1 0x20 DUP1 DUP3 MSTORE PUSH1 0xD SWAP1 DUP3 ADD MSTORE PUSH13 0x576167657220746F6F206C6F77 PUSH1 0x98 SHL PUSH1 0x40 DUP3 ADD MSTORE PUSH1 0x60 ADD SWAP1 JUMP JUMPDEST PUSH4 0x4E487B71 PUSH1 0xE0 SHL PUSH1 0x0 MSTORE PUSH1 0x11 PUSH1 0x4 MSTORE PUSH1 0x24 PUSH1 0x0 REVERT JUMPDEST DUP1 DUP3 MUL DUP2 ISZERO DUP3 DUP3 DIV DUP5 EQ OR PUSH2 0x13F6 JUMPI PUSH2 0x13F6 PUSH2 0x13C9 JUMP JUMPDEST SWAP3 SWAP2 POP POP JUMP JUMPDEST PUSH1 0x20 DUP1 DUP3 MSTORE PUSH1 0x23 SWAP1 DUP3 ADD MSTORE PUSH32 0x486F7573652063616E6E6F7420636F76657220706F74656E7469616C20706179 PUSH1 0x40 DUP3 ADD MSTORE PUSH3 0x1BDD5D PUSH1 0xEA SHL PUSH1 0x60 DUP3 ADD MSTORE PUSH1 0x80 ADD SWAP1 JUMP JUMPDEST PUSH1 0x0 PUSH1 0x1 DUP3 ADD PUSH2 0x1451 JUMPI PUSH2 0x1451 PUSH2 0x13C9 JUMP JUMPDEST POP PUSH1 0x1 ADD SWAP1 JUMP JUMPDEST DUP1 DUP3 ADD DUP1 DUP3 GT ISZERO PUSH2 0x13F6 JUMPI PUSH2 0x13F6 PUSH2 0x13C9 JUMP JUMPDEST PUSH1 0x40 DUP2 ADD PUSH2 0x1479 DUP3 DUP6 PUSH2 0x123F JUMP JUMPDEST DUP3 PUSH1 0x20 DUP4 ADD MSTORE SWAP4 SWAP3 POP POP POP JUMP JUMPDEST DUP2 DUP2 SUB DUP2 DUP2 GT ISZERO PUSH2 0x13F6 JUMPI PUSH2 0x13F6 PUSH2 0x13C9 JUMP JUMPDEST PUSH1 0x0 DUP3 PUSH2 0x14B6 JUMPI PUSH4 0x4E487B71 PUSH1 0xE0 SHL PUSH1 0x0 MSTORE PUSH1 0x12 PUSH1 0x4 MSTORE PUSH1 0x24 PUSH1 0x0 REVERT JUMPDEST POP DIV SWAP1 JUMP INVALID LOG2 PUSH5 0x6970667358 0x22 SLT KECCAK256 SWAP10 PUSH4 0x4EDE5F05 0xAC 0xC7 MUL 0xC2 0xDB PUSH9 0x93BE00DC15B910CA73 DUP16 SWAP9 PUSH32 0xCD17CCE3AF9F5B1A64736F6C6343000814003300000000000000000000000000 "},"methodIdentifiers":{"depositHouse()":"a8636b9b","gameCounter()":"2e0be39a","games(uint256)":"117a5b90","getGame(uint256)":"a2f77bcc","getStats()":"c59d4847","houseBalance()":"67084eb3","minWagers(uint8)":"58d9f8da","owner()":"8da5cb5b","pause()":"8456cb59","paused()":"5c975abb","playCoinFlip()":"1806b3c2","playDiceRoll(uint256)":"fbd26fa3","playMysteryBox()":"55751580","renounceOwnership()":"715018a6","resolveGame(uint256,bool,uint256)":"e3f83218","roflApp()":"86b3a870","setROFLApp(address)":"55f1f9f1","totalPaidOut()":"1357e1dc","totalWagered()":"8a14f12c","transferOwnership(address)":"f2fde38b","unpause()":"3f4ba83a","withdrawHouse(uint256)":"23218411"}}}}}