{
  "_format": "hh-sol-artifact-1",
  "contractName": "GameManager",
  "sourceName": "contracts/GameManager.sol",
  "abi": [
    {
      "inputs": [],
      "stateMutability": "nonpayable",
      "type": "constructor"
    },
    {
      "inputs": [],
      "name": "EnforcedPause",
      "type": "error"
    },
    {
      "inputs": [],
      "name": "ExpectedPause",
      "type": "error"
    },
    {
      "inputs": [
        {
          "internalType": "address",
          "name": "owner",
          "type": "address"
        }
      ],
      "name": "OwnableInvalidOwner",
      "type": "error"
    },
    {
      "inputs": [
        {
          "internalType": "address",
          "name": "account",
          "type": "address"
        }
      ],
      "name": "OwnableUnauthorizedAccount",
      "type": "error"
    },
    {
      "inputs": [],
      "name": "ReentrancyGuardReentrantCall",
      "type": "error"
    },
    {
      "anonymous": false,
      "inputs": [
        {
          "indexed": true,
          "internalType": "uint256",
          "name": "gameId",
          "type": "uint256"
        },
        {
          "indexed": true,
          "internalType": "address",
          "name": "player",
          "type": "address"
        },
        {
          "indexed": false,
          "internalType": "enum GameManager.GameType",
          "name": "gameType",
          "type": "uint8"
        },
        {
          "indexed": false,
          "internalType": "uint256",
          "name": "wager",
          "type": "uint256"
        }
      ],
      "name": "GameCreated",
      "type": "event"
    },
    {
      "anonymous": false,
      "inputs": [
        {
          "indexed": true,
          "internalType": "uint256",
          "name": "gameId",
          "type": "uint256"
        },
        {
          "indexed": true,
          "internalType": "address",
          "name": "player",
          "type": "address"
        },
        {
          "indexed": false,
          "internalType": "uint256",
          "name": "payout",
          "type": "uint256"
        },
        {
          "indexed": false,
          "internalType": "bool",
          "name": "won",
          "type": "bool"
        }
      ],
      "name": "GameResolved",
      "type": "event"
    },
    {
      "anonymous": false,
      "inputs": [
        {
          "indexed": false,
          "internalType": "uint256",
          "name": "amount",
          "type": "uint256"
        }
      ],
      "name": "HouseDeposit",
      "type": "event"
    },
    {
      "anonymous": false,
      "inputs": [
        {
          "indexed": false,
          "internalType": "uint256",
          "name": "amount",
          "type": "uint256"
        }
      ],
      "name": "HouseWithdraw",
      "type": "event"
    },
    {
      "anonymous": false,
      "inputs": [
        {
          "indexed": true,
          "internalType": "address",
          "name": "previousOwner",
          "type": "address"
        },
        {
          "indexed": true,
          "internalType": "address",
          "name": "newOwner",
          "type": "address"
        }
      ],
      "name": "OwnershipTransferred",
      "type": "event"
    },
    {
      "anonymous": false,
      "inputs": [
        {
          "indexed": false,
          "internalType": "address",
          "name": "account",
          "type": "address"
        }
      ],
      "name": "Paused",
      "type": "event"
    },
    {
      "anonymous": false,
      "inputs": [
        {
          "indexed": true,
          "internalType": "address",
          "name": "oldApp",
          "type": "address"
        },
        {
          "indexed": true,
          "internalType": "address",
          "name": "newApp",
          "type": "address"
        }
      ],
      "name": "ROFLAppUpdated",
      "type": "event"
    },
    {
      "anonymous": false,
      "inputs": [
        {
          "indexed": false,
          "internalType": "address",
          "name": "account",
          "type": "address"
        }
      ],
      "name": "Unpaused",
      "type": "event"
    },
    {
      "inputs": [],
      "name": "depositHouse",
      "outputs": [],
      "stateMutability": "payable",
      "type": "function"
    },
    {
      "inputs": [],
      "name": "gameCounter",
      "outputs": [
        {
          "internalType": "uint256",
          "name": "",
          "type": "uint256"
        }
      ],
      "stateMutability": "view",
      "type": "function"
    },
    {
      "inputs": [
        {
          "internalType": "uint256",
          "name": "",
          "type": "uint256"
        }
      ],
      "name": "games",
      "outputs": [
        {
          "internalType": "address",
          "name": "player",
          "type": "address"
        },
        {
          "internalType": "enum GameManager.GameType",
          "name": "gameType",
          "type": "uint8"
        },
        {
          "internalType": "uint256",
          "name": "wager",
          "type": "uint256"
        },
        {
          "internalType": "uint256",
          "name": "timestamp",
          "type": "uint256"
        },
        {
          "internalType": "enum GameManager.GameStatus",
          "name": "status",
          "type": "uint8"
        },
        {
          "internalType": "uint256",
          "name": "payout",
          "type": "uint256"
        },
        {
          "internalType": "uint256",
          "name": "multiplier",
          "type": "uint256"
        }
      ],
      "stateMutability": "view",
      "type": "function"
    },
    {
      "inputs": [
        {
          "internalType": "uint256",
          "name": "gameId",
          "type": "uint256"
        }
      ],
      "name": "getGame",
      "outputs": [
        {
          "components": [
            {
              "internalType": "address",
              "name": "player",
              "type": "address"
            },
            {
              "internalType": "enum GameManager.GameType",
              "name": "gameType",
              "type": "uint8"
            },
            {
              "internalType": "uint256",
              "name": "wager",
              "type": "uint256"
            },
            {
              "internalType": "uint256",
              "name": "timestamp",
              "type": "uint256"
            },
            {
              "internalType": "enum GameManager.GameStatus",
              "name": "status",
              "type": "uint8"
            },
            {
              "internalType": "uint256",
              "name": "payout",
              "type": "uint256"
            },
            {
              "internalType": "uint256",
              "name": "multiplier",
              "type": "uint256"
            }
          ],
          "internalType": "struct GameManager.GameRequest",
          "name": "",
          "type": "tuple"
        }
      ],
      "stateMutability": "view",
      "type": "function"
    },
    {
      "inputs": [],
      "name": "getStats",
      "outputs": [
        {
          "internalType": "uint256",
          "name": "",
          "type": "uint256"
        },
        {
          "internalType": "uint256",
          "name": "",
          "type": "uint256"
        },
        {
          "internalType": "uint256",
          "name": "",
          "type": "uint256"
        },
        {
          "internalType": "uint256",
          "name": "",
          "type": "uint256"
        }
      ],
      "stateMutability": "view",
      "type": "function"
    },
    {
      "inputs": [],
      "name": "houseBalance",
      "outputs": [
        {
          "internalType": "uint256",
          "name": "",
          "type": "uint256"
        }
      ],
      "stateMutability": "view",
      "type": "function"
    },
    {
      "inputs": [
        {
          "internalType": "enum GameManager.GameType",
          "name": "",
          "type": "uint8"
        }
      ],
      "name": "minWagers",
      "outputs": [
        {
          "internalType": "uint256",
          "name": "",
          "type": "uint256"
        }
      ],
      "stateMutability": "view",
      "type": "function"
    },
    {
      "inputs": [],
      "name": "owner",
      "outputs": [
        {
          "internalType": "address",
          "name": "",
          "type": "address"
        }
      ],
      "stateMutability": "view",
      "type": "function"
    },
    {
      "inputs": [],
      "name": "pause",
      "outputs": [],
      "stateMutability": "nonpayable",
      "type": "function"
    },
    {
      "inputs": [],
      "name": "paused",
      "outputs": [
        {
          "internalType": "bool",
          "name": "",
          "type": "bool"
        }
      ],
      "stateMutability": "view",
      "type": "function"
    },
    {
      "inputs": [],
      "name": "playCoinFlip",
      "outputs": [],
      "stateMutability": "payable",
      "type": "function"
    },
    {
      "inputs": [
        {
          "internalType": "uint256",
          "name": "multiplier",
          "type": "uint256"
        }
      ],
      "name": "playDiceRoll",
      "outputs": [],
      "stateMutability": "payable",
      "type": "function"
    },
    {
      "inputs": [],
      "name": "playMysteryBox",
      "outputs": [],
      "stateMutability": "payable",
      "type": "function"
    },
    {
      "inputs": [],
      "name": "renounceOwnership",
      "outputs": [],
      "stateMutability": "nonpayable",
      "type": "function"
    },
    {
      "inputs": [
        {
          "internalType": "uint256",
          "name": "gameId",
          "type": "uint256"
        },
        {
          "internalType": "bool",
          "name": "won",
          "type": "bool"
        },
        {
          "internalType": "uint256",
          "name": "payout",
          "type": "uint256"
        }
      ],
      "name": "resolveGame",
      "outputs": [],
      "stateMutability": "nonpayable",
      "type": "function"
    },
    {
      "inputs": [],
      "name": "roflApp",
      "outputs": [
        {
          "internalType": "address",
          "name": "",
          "type": "address"
        }
      ],
      "stateMutability": "view",
      "type": "function"
    },
    {
      "inputs": [
        {
          "internalType": "address",
          "name": "_roflApp",
          "type": "address"
        }
      ],
      "name": "setROFLApp",
      "outputs": [],
      "stateMutability": "nonpayable",
      "type": "function"
    },
    {
      "inputs": [],
      "name": "totalPaidOut",
      "outputs": [
        {
          "internalType": "uint256",
          "name": "",
          "type": "uint256"
        }
      ],
      "stateMutability": "view",
      "type": "function"
    },
    {
      "inputs": [],
      "name": "totalWagered",
      "outputs": [
        {
          "internalType": "uint256",
          "name": "",
          "type": "uint256"
        }
      ],
      "stateMutability": "view",
      "type": "function"
    },
    {
      "inputs": [
        {
          "internalType": "address",
          "name": "newOwner",
          "type": "address"
        }
      ],
      "name": "transferOwnership",
      "outputs": [],
      "stateMutability": "nonpayable",
      "type": "function"
    },
    {
      "inputs": [],
      "name": "unpause",
      "outputs": [],
      "stateMutability": "nonpayable",
      "type": "function"
    },
    {
      "inputs": [
        {
          "internalType": "uint256",
          "name": "amount",
          "type": "uint256"
        }
      ],
      "name": "withdrawHouse",
      "outputs": [],
      "stateMutability": "nonpayable",
      "type": "function"
    }
  ],
  "bytecode": "0x608060405234801561001057600080fd5b50338061003757604051631e4fbdf760e01b81526000600482015260240160405180910390fd5b610040816100f1565b5060018055600960205267016345785d8a00007fec8156718a8372b1db44bb411437d0870f3e3790d4a08526d024ce1b0b668f6b8190557f92e85d02570a8092d09a6e3a57665bc3815a2699a4074001bf1ccabf660f5a368190557f6cde3cea4b3a3fb2488b2808bae7556f4a405e50f65e1794383bc026131b13c355600360005266b1a2bc2ec500007fc575c31fea594a6eb97c8e9d3f9caee4c16218c6ef37e923234c0fe9014a61e755610141565b600080546001600160a01b038381166001600160a01b0319831681178455604051919092169283917f8be0079c531659141344cd1fd0a4f28419497f9722a3daafe3b4186f6b6457e09190a35050565b6114f1806101506000396000f3fe6080604052600436106101355760003560e01c8063715018a6116100ab578063a2f77bcc1161006f578063a2f77bcc1461035d578063a8636b9b1461038a578063c59d484714610392578063e3f83218146103cb578063f2fde38b146103eb578063fbd26fa31461040b57600080fd5b8063715018a6146102c75780638456cb59146102dc57806386b3a870146102f15780638a14f12c146103295780638da5cb5b1461033f57600080fd5b80633f4ba83a116100fd5780633f4ba83a14610224578063557515801461023957806355f1f9f11461024157806358d9f8da146102615780635c975abb1461028e57806367084eb3146102b157600080fd5b8063117a5b901461013a5780631357e1dc146101c05780631806b3c2146101e457806323218411146101ee5780632e0be39a1461020e575b600080fd5b34801561014657600080fd5b506101a4610155366004611210565b60036020819052600091825260409091208054600182015460028301549383015460048401546005909401546001600160a01b0384169560ff600160a01b909504851695939490939216919087565b6040516101b79796959493929190611263565b60405180910390f35b3480156101cc57600080fd5b506101d660085481565b6040519081526020016101b7565b6101ec61041e565b005b3480156101fa57600080fd5b506101ec610209366004611210565b61061b565b34801561021a57600080fd5b506101d660045481565b34801561023057600080fd5b506101ec610760565b6101ec610770565b34801561024d57600080fd5b506101ec61025c3660046112ae565b610923565b34801561026d57600080fd5b506101d661027c3660046112de565b60096020526000908152604090205481565b34801561029a57600080fd5b5060025460ff1660405190151581526020016101b7565b3480156102bd57600080fd5b506101d660065481565b3480156102d357600080fd5b506101ec6109cf565b3480156102e857600080fd5b506101ec6109e1565b3480156102fd57600080fd5b50600554610311906001600160a01b031681565b6040516001600160a01b0390911681526020016101b7565b34801561033557600080fd5b506101d660075481565b34801561034b57600080fd5b506000546001600160a01b0316610311565b34801561036957600080fd5b5061037d610378366004611210565b6109f1565b6040516101b791906112ff565b6101ec610af0565b34801561039e57600080fd5b506004546007546008546006546040805194855260208501939093529183015260608201526080016101b7565b3480156103d757600080fd5b506101ec6103e6366004611365565b610b3d565b3480156103f757600080fd5b506101ec6104063660046112ae565b610e06565b6101ec610419366004611210565b610e41565b610426611098565b61042e6110c2565b600160005260096020527f92e85d02570a8092d09a6e3a57665bc3815a2699a4074001bf1ccabf660f5a36543410156104825760405162461bcd60e51b8152600401610479906113a2565b60405180910390fd5b61048d3460026113df565b60065410156104ae5760405162461bcd60e51b8152600401610479906113fc565b60048054600091826104bf8361143f565b909155506040805160e081019091523381529091506020810160018152346020820152426040820152606001600081526000602080830182905260c8604093840152848252600380825292909120835181546001600160a01b039091166001600160a01b0319821681178355928501519193919284926001600160a81b03199092161790600160a01b90849081111561055a5761055a611229565b0217905550604082015181600101556060820151816002015560808201518160030160006101000a81548160ff0219169083600281111561059d5761059d611229565b021790555060a0820151816004015560c0820151816005015590505034600760008282546105cb9190611458565b9091555050604051339082907fce7afad46ab3446a50492edf65c62119da1a4def9df32e797c96b27a9470f4119061060790600190349061146b565b60405180910390a35061061960018055565b565b6106236110e6565b61062b611098565b60065481111561067d5760405162461bcd60e51b815260206004820152601a60248201527f496e73756666696369656e7420686f7573652062616c616e63650000000000006044820152606401610479565b806006600082825461068f9190611486565b9091555050604051600090339083908381818185875af1925050503d80600081146106d6576040519150601f19603f3d011682016040523d82523d6000602084013e6106db565b606091505b50509050806107205760405162461bcd60e51b815260206004820152601160248201527015da5d1a191c985dd85b0819985a5b1959607a1b6044820152606401610479565b6040518281527f0cb21f4b914302d351935752deb87c08508e3d50fc781b110b0879ce5df593a99060200160405180910390a15061075d60018055565b50565b6107686110e6565b610619611113565b610778611098565b6107806110c2565b6000805260096020527fec8156718a8372b1db44bb411437d0870f3e3790d4a08526d024ce1b0b668f6b543410156107ca5760405162461bcd60e51b8152600401610479906113a2565b60048054600091826107db8361143f565b909155506040805160e08101909152338152909150602081016000815234602082015242604082015260600160008152600060208083018290526040928301829052848252600380825292909120835181546001600160a01b039091166001600160a01b0319821681178355928501519193919284926001600160a81b03199092161790600160a01b90849081111561087657610876611229565b0217905550604082015181600101556060820151816002015560808201518160030160006101000a81548160ff021916908360028111156108b9576108b9611229565b021790555060a0820151816004015560c0820151816005015590505034600760008282546108e79190611458565b9091555050604051339082907fce7afad46ab3446a50492edf65c62119da1a4def9df32e797c96b27a9470f4119061060790600090349061146b565b61092b6110e6565b6001600160a01b0381166109735760405162461bcd60e51b815260206004820152600f60248201526e496e76616c6964206164647265737360881b6044820152606401610479565b6005546040516001600160a01b038084169216907fdc8eb53b68498632af49f2ce795bc913f0241c7bc3f7900d6d0d3e175357dbcc90600090a3600580546001600160a01b0319166001600160a01b0392909216919091179055565b6109d76110e6565b6106196000611160565b6109e96110e6565b6106196111b0565b610a316040805160e08101825260008082526020820181905291810182905260608101829052906080820190815260200160008152602001600081525090565b600082815260036020818152604092839020835160e0810190945280546001600160a01b0381168552909291840191600160a01b90910460ff1690811115610a7b57610a7b611229565b6003811115610a8c57610a8c611229565b8152600182015460208201526002808301546040830152600383015460609092019160ff1690811115610ac157610ac1611229565b6002811115610ad257610ad2611229565b81526004820154602082015260059091015460409091015292915050565b3460066000828254610b029190611458565b90915550506040513481527f82cb720161b49803cf74bde7272eeb4a7b5a2d39143c1f544d883a93548f8fbc906020015b60405180910390a1565b610b45611098565b6005546001600160a01b03163314610b9f5760405162461bcd60e51b815260206004820152601960248201527f4f6e6c7920524f464c206170702063616e207265736f6c7665000000000000006044820152606401610479565b60008381526003602081905260408220015460ff166002811115610bc557610bc5611229565b14610c055760405162461bcd60e51b815260206004820152601060248201526f47616d65206e6f742070656e64696e6760801b6044820152606401610479565b6000838152600360208190526040909120908101805460ff1916600117905560048101829055828015610c385750600082115b15610d915781471015610c845760405162461bcd60e51b8152602060048201526014602482015273496e73756666696369656e742062616c616e636560601b6044820152606401610479565b8160086000828254610c969190611458565b90915550506001810154821115610cd2576001810154610cb69083611486565b60066000828254610cc79190611486565b90915550610cf99050565b818160010154610ce29190611486565b60066000828254610cf39190611458565b90915550505b80546040516000916001600160a01b03169084908381818185875af1925050503d8060008114610d45576040519150601f19603f3d011682016040523d82523d6000602084013e610d4a565b606091505b5050905080610d8b5760405162461bcd60e51b815260206004820152600d60248201526c14185e5bdd5d0819985a5b1959609a1b6044820152606401610479565b50610dad565b806001015460066000828254610da79190611458565b90915550505b80546040805184815285151560208201526001600160a01b039092169186917fdce9321027c0ce65e070e4512ae518d2a4fdace9c65a486ebcaad53d63884ebf910160405180910390a350610e0160018055565b505050565b610e0e6110e6565b6001600160a01b038116610e3857604051631e4fbdf760e01b815260006004820152602401610479565b61075d81611160565b610e49611098565b610e516110c2565b600260005260096020527f6cde3cea4b3a3fb2488b2808bae7556f4a405e50f65e1794383bc026131b13c354341015610e9c5760405162461bcd60e51b8152600401610479906113a2565b606e8110158015610eaf57506102588111155b610ef05760405162461bcd60e51b815260206004820152601260248201527124b73b30b634b21036bab63a34b83634b2b960711b6044820152606401610479565b60006064610efe83346113df565b610f089190611499565b9050806006541015610f2c5760405162461bcd60e51b8152600401610479906113fc565b6004805460009182610f3d8361143f565b909155506040805160e08101909152338152909150602081016002815234602082015242604082015260600160008152600060208083018290526040928301879052848252600380825292909120835181546001600160a01b039091166001600160a01b0319821681178355928501519193919284926001600160a81b03199092161790600160a01b908490811115610fd857610fd8611229565b0217905550604082015181600101556060820151816002015560808201518160030160006101000a81548160ff0219169083600281111561101b5761101b611229565b021790555060a0820151816004015560c0820151816005015590505034600760008282546110499190611458565b9091555050604051339082907fce7afad46ab3446a50492edf65c62119da1a4def9df32e797c96b27a9470f4119061108590600290349061146b565b60405180910390a3505061075d60018055565b6002600154036110bb57604051633ee5aeb560e01b815260040160405180910390fd5b6002600155565b60025460ff16156106195760405163d93c066560e01b815260040160405180910390fd5b6000546001600160a01b031633146106195760405163118cdaa760e01b8152336004820152602401610479565b61111b6111ed565b6002805460ff191690557f5db9ee0a495bf2e6ff9c91a7834c1ba4fdd244a5e8aa4e537bd38aeae4b073aa335b6040516001600160a01b039091168152602001610b33565b600080546001600160a01b038381166001600160a01b0319831681178455604051919092169283917f8be0079c531659141344cd1fd0a4f28419497f9722a3daafe3b4186f6b6457e09190a35050565b6111b86110c2565b6002805460ff191660011790557f62e78cea01bee320cd4e420270b5ea74000d11b0c9f74754ebdbfc544b05a2586111483390565b60025460ff1661061957604051638dfc202b60e01b815260040160405180910390fd5b60006020828403121561122257600080fd5b5035919050565b634e487b7160e01b600052602160045260246000fd5b6004811061124f5761124f611229565b9052565b6003811061124f5761124f611229565b6001600160a01b038816815260e08101611280602083018961123f565b8660408301528560608301526112996080830186611253565b60a082019390935260c0015295945050505050565b6000602082840312156112c057600080fd5b81356001600160a01b03811681146112d757600080fd5b9392505050565b6000602082840312156112f057600080fd5b8135600481106112d757600080fd5b81516001600160a01b0316815260208083015160e08301916113239084018261123f565b506040830151604083015260608301516060830152608083015161134a6080840182611253565b5060a083015160a083015260c083015160c083015292915050565b60008060006060848603121561137a57600080fd5b833592506020840135801515811461139157600080fd5b929592945050506040919091013590565b6020808252600d908201526c576167657220746f6f206c6f7760981b604082015260600190565b634e487b7160e01b600052601160045260246000fd5b80820281158282048414176113f6576113f66113c9565b92915050565b60208082526023908201527f486f7573652063616e6e6f7420636f76657220706f74656e7469616c207061796040820152621bdd5d60ea1b606082015260800190565b600060018201611451576114516113c9565b5060010190565b808201808211156113f6576113f66113c9565b60408101611479828561123f565b8260208301529392505050565b818103818111156113f6576113f66113c9565b6000826114b657634e487b7160e01b600052601260045260246000fd5b50049056fea264697066735822122099634ede5f05acc702c2db6893be00dc15b910ca738f987fcd17cce3af9f5b1a64736f6c63430008140033",
  "linkReferences": {},
  "deployedLinkReferences": {}
}