{
  "_format": "hh-sol-artifact-1",
  "contractName": "MysteryBoxNFT",
  "sourceName": "contracts/MysteryBoxNFT.sol",
  "abi": [
    {
      "inputs": [
        {
          "internalType": "address",
          "name": "_gameManager",
          "type": "address"
        }
      ],
      "stateMutability": "nonpayable",
      "type": "constructor"
    },
    {
      "inputs": [
        {
          "internalType": "address",
          "name": "sender",
          "type": "address"
        },
        {
          "internalType": "uint256",
          "name": "tokenId",
          "type": "uint256"
        },
        {
          "internalType": "address",
          "name": "owner",
          "type": "address"
        }
      ],
      "name": "ERC721IncorrectOwner",
      "type": "error"
    },
    {
      "inputs": [
        {
          "internalType": "address",
          "name": "operator",
          "type": "address"
        },
        {
          "internalType": "uint256",
          "name": "tokenId",
          "type": "uint256"
        }
      ],
      "name": "ERC721InsufficientApproval",
      "type": "error"
    },
    {
      "inputs": [
        {
          "internalType": "address",
          "name": "approver",
          "type": "address"
        }
      ],
      "name": "ERC721InvalidApprover",
      "type": "error"
    },
    {
      "inputs": [
        {
          "internalType": "address",
          "name": "operator",
          "type": "address"
        }
      ],
      "name": "ERC721InvalidOperator",
      "type": "error"
    },
    {
      "inputs": [
        {
          "internalType": "address",
          "name": "owner",
          "type": "address"
        }
      ],
      "name": "ERC721InvalidOwner",
      "type": "error"
    },
    {
      "inputs": [
        {
          "internalType": "address",
          "name": "receiver",
          "type": "address"
        }
      ],
      "name": "ERC721InvalidReceiver",
      "type": "error"
    },
    {
      "inputs": [
        {
          "internalType": "address",
          "name": "sender",
          "type": "address"
        }
      ],
      "name": "ERC721InvalidSender",
      "type": "error"
    },
    {
      "inputs": [
        {
          "internalType": "uint256",
          "name": "tokenId",
          "type": "uint256"
        }
      ],
      "name": "ERC721NonexistentToken",
      "type": "error"
    },
    {
      "inputs": [
        {
          "internalType": "address",
          "name": "owner",
          "type": "address"
        }
      ],
      "name": "OwnableInvalidOwner",
      "type": "error"
    },
    {
      "inputs": [
        {
          "internalType": "address",
          "name": "account",
          "type": "address"
        }
      ],
      "name": "OwnableUnauthorizedAccount",
      "type": "error"
    },
    {
      "anonymous": false,
      "inputs": [
        {
          "indexed": true,
          "internalType": "address",
          "name": "owner",
          "type": "address"
        },
        {
          "indexed": true,
          "internalType": "address",
          "name": "approved",
          "type": "address"
        },
        {
          "indexed": true,
          "internalType": "uint256",
          "name": "tokenId",
          "type": "uint256"
        }
      ],
      "name": "Approval",
      "type": "event"
    },
    {
      "anonymous": false,
      "inputs": [
        {
          "indexed": true,
          "internalType": "address",
          "name": "owner",
          "type": "address"
        },
        {
          "indexed": true,
          "internalType": "address",
          "name": "operator",
          "type": "address"
        },
        {
          "indexed": false,
          "internalType": "bool",
          "name": "approved",
          "type": "bool"
        }
      ],
      "name": "ApprovalForAll",
      "type": "event"
    },
    {
      "anonymous": false,
      "inputs": [
        {
          "indexed": true,
          "internalType": "address",
          "name": "to",
          "type": "address"
        },
        {
          "indexed": true,
          "internalType": "uint256",
          "name": "tokenId",
          "type": "uint256"
        },
        {
          "indexed": false,
          "internalType": "enum MysteryBoxNFT.Rarity",
          "name": "rarity",
          "type": "uint8"
        }
      ],
      "name": "NFTMinted",
      "type": "event"
    },
    {
      "anonymous": false,
      "inputs": [
        {
          "indexed": true,
          "internalType": "address",
          "name": "previousOwner",
          "type": "address"
        },
        {
          "indexed": true,
          "internalType": "address",
          "name": "newOwner",
          "type": "address"
        }
      ],
      "name": "OwnershipTransferred",
      "type": "event"
    },
    {
      "anonymous": false,
      "inputs": [
        {
          "indexed": true,
          "internalType": "address",
          "name": "from",
          "type": "address"
        },
        {
          "indexed": true,
          "internalType": "address",
          "name": "to",
          "type": "address"
        },
        {
          "indexed": true,
          "internalType": "uint256",
          "name": "tokenId",
          "type": "uint256"
        }
      ],
      "name": "Transfer",
      "type": "event"
    },
    {
      "inputs": [
        {
          "internalType": "address",
          "name": "to",
          "type": "address"
        },
        {
          "internalType": "uint256",
          "name": "tokenId",
          "type": "uint256"
        }
      ],
      "name": "approve",
      "outputs": [],
      "stateMutability": "nonpayable",
      "type": "function"
    },
    {
      "inputs": [
        {
          "internalType": "address",
          "name": "owner",
          "type": "address"
        }
      ],
      "name": "balanceOf",
      "outputs": [
        {
          "internalType": "uint256",
          "name": "",
          "type": "uint256"
        }
      ],
      "stateMutability": "view",
      "type": "function"
    },
    {
      "inputs": [],
      "name": "gameManager",
      "outputs": [
        {
          "internalType": "address",
          "name": "",
          "type": "address"
        }
      ],
      "stateMutability": "view",
      "type": "function"
    },
    {
      "inputs": [
        {
          "internalType": "uint256",
          "name": "tokenId",
          "type": "uint256"
        }
      ],
      "name": "getApproved",
      "outputs": [
        {
          "internalType": "address",
          "name": "",
          "type": "address"
        }
      ],
      "stateMutability": "view",
      "type": "function"
    },
    {
      "inputs": [
        {
          "internalType": "uint256",
          "name": "tokenId",
          "type": "uint256"
        }
      ],
      "name": "getNFTData",
      "outputs": [
        {
          "components": [
            {
              "internalType": "enum MysteryBoxNFT.Rarity",
              "name": "rarity",
              "type": "uint8"
            },
            {
              "internalType": "uint256",
              "name": "mintedAt",
              "type": "uint256"
            },
            {
              "internalType": "string",
              "name": "name",
              "type": "string"
            }
          ],
          "internalType": "struct MysteryBoxNFT.NFTData",
          "name": "",
          "type": "tuple"
        }
      ],
      "stateMutability": "view",
      "type": "function"
    },
    {
      "inputs": [
        {
          "internalType": "address",
          "name": "owner",
          "type": "address"
        },
        {
          "internalType": "address",
          "name": "operator",
          "type": "address"
        }
      ],
      "name": "isApprovedForAll",
      "outputs": [
        {
          "internalType": "bool",
          "name": "",
          "type": "bool"
        }
      ],
      "stateMutability": "view",
      "type": "function"
    },
    {
      "inputs": [
        {
          "internalType": "address",
          "name": "to",
          "type": "address"
        },
        {
          "internalType": "enum MysteryBoxNFT.Rarity",
          "name": "rarity",
          "type": "uint8"
        }
      ],
      "name": "mint",
      "outputs": [
        {
          "internalType": "uint256",
          "name": "",
          "type": "uint256"
        }
      ],
      "stateMutability": "nonpayable",
      "type": "function"
    },
    {
      "inputs": [],
      "name": "name",
      "outputs": [
        {
          "internalType": "string",
          "name": "",
          "type": "string"
        }
      ],
      "stateMutability": "view",
      "type": "function"
    },
    {
      "inputs": [
        {
          "internalType": "uint256",
          "name": "",
          "type": "uint256"
        }
      ],
      "name": "nftData",
      "outputs": [
        {
          "internalType": "enum MysteryBoxNFT.Rarity",
          "name": "rarity",
          "type": "uint8"
        },
        {
          "internalType": "uint256",
          "name": "mintedAt",
          "type": "uint256"
        },
        {
          "internalType": "string",
          "name": "name",
          "type": "string"
        }
      ],
      "stateMutability": "view",
      "type": "function"
    },
    {
      "inputs": [],
      "name": "owner",
      "outputs": [
        {
          "internalType": "address",
          "name": "",
          "type": "address"
        }
      ],
      "stateMutability": "view",
      "type": "function"
    },
    {
      "inputs": [
        {
          "internalType": "uint256",
          "name": "tokenId",
          "type": "uint256"
        }
      ],
      "name": "ownerOf",
      "outputs": [
        {
          "internalType": "address",
          "name": "",
          "type": "address"
        }
      ],
      "stateMutability": "view",
      "type": "function"
    },
    {
      "inputs": [],
      "name": "renounceOwnership",
      "outputs": [],
      "stateMutability": "nonpayable",
      "type": "function"
    },
    {
      "inputs": [
        {
          "internalType": "address",
          "name": "from",
          "type": "address"
        },
        {
          "internalType": "address",
          "name": "to",
          "type": "address"
        },
        {
          "internalType": "uint256",
          "name": "tokenId",
          "type": "uint256"
        }
      ],
      "name": "safeTransferFrom",
      "outputs": [],
      "stateMutability": "nonpayable",
      "type": "function"
    },
    {
      "inputs": [
        {
          "internalType": "address",
          "name": "from",
          "type": "address"
        },
        {
          "internalType": "address",
          "name": "to",
          "type": "address"
        },
        {
          "internalType": "uint256",
          "name": "tokenId",
          "type": "uint256"
        },
        {
          "internalType": "bytes",
          "name": "data",
          "type": "bytes"
        }
      ],
      "name": "safeTransferFrom",
      "outputs": [],
      "stateMutability": "nonpayable",
      "type": "function"
    },
    {
      "inputs": [
        {
          "internalType": "address",
          "name": "operator",
          "type": "address"
        },
        {
          "internalType": "bool",
          "name": "approved",
          "type": "bool"
        }
      ],
      "name": "setApprovalForAll",
      "outputs": [],
      "stateMutability": "nonpayable",
      "type": "function"
    },
    {
      "inputs": [
        {
          "internalType": "string",
          "name": "baseURI",
          "type": "string"
        }
      ],
      "name": "setBaseURI",
      "outputs": [],
      "stateMutability": "nonpayable",
      "type": "function"
    },
    {
      "inputs": [
        {
          "internalType": "address",
          "name": "_gameManager",
          "type": "address"
        }
      ],
      "name": "setGameManager",
      "outputs": [],
      "stateMutability": "nonpayable",
      "type": "function"
    },
    {
      "inputs": [
        {
          "internalType": "bytes4",
          "name": "interfaceId",
          "type": "bytes4"
        }
      ],
      "name": "supportsInterface",
      "outputs": [
        {
          "internalType": "bool",
          "name": "",
          "type": "bool"
        }
      ],
      "stateMutability": "view",
      "type": "function"
    },
    {
      "inputs": [],
      "name": "symbol",
      "outputs": [
        {
          "internalType": "string",
          "name": "",
          "type": "string"
        }
      ],
      "stateMutability": "view",
      "type": "function"
    },
    {
      "inputs": [
        {
          "internalType": "uint256",
          "name": "tokenId",
          "type": "uint256"
        }
      ],
      "name": "tokenURI",
      "outputs": [
        {
          "internalType": "string",
          "name": "",
          "type": "string"
        }
      ],
      "stateMutability": "view",
      "type": "function"
    },
    {
      "inputs": [],
      "name": "totalSupply",
      "outputs": [
        {
          "internalType": "uint256",
          "name": "",
          "type": "uint256"
        }
      ],
      "stateMutability": "view",
      "type": "function"
    },
    {
      "inputs": [
        {
          "internalType": "address",
          "name": "from",
          "type": "address"
        },
        {
          "internalType": "address",
          "name": "to",
          "type": "address"
        },
        {
          "internalType": "uint256",
          "name": "tokenId",
          "type": "uint256"
        }
      ],
      "name": "transferFrom",
      "outputs": [],
      "stateMutability": "nonpayable",
      "type": "function"
    },
    {
      "inputs": [
        {
          "internalType": "address",
          "name": "newOwner",
          "type": "address"
        }
      ],
      "name": "transferOwnership",
      "outputs": [],
      "stateMutability": "nonpayable",
      "type": "function"
    }
  ],
  "bytecode": "0x60066101009081526521b7b6b6b7b760d11b6101205260809081526004610140818152635261726560e01b6101605260a052610180818152634570696360e01b6101a05260c05261020060405260096101c0908152684c6567656e6461727960b81b6101e05260e0526200007691600a91620001e9565b503480156200008457600080fd5b5060405162001e8f38038062001e8f833981016040819052620000a791620002b3565b336040518060400160405280600f81526020016e135e5cdd195c9e48109bde08139195608a1b81525060405180604001604052806005815260200164135093919560da1b8152508160009081620000ff91906200038a565b5060016200010e82826200038a565b5050506001600160a01b0381166200014057604051631e4fbdf760e01b81526000600482015260240160405180910390fd5b6200014b8162000197565b50600980546001600160a01b0319166001600160a01b0383161790556040805160608101909152602680825262001e696020830139600e906200018f90826200038a565b505062000456565b600680546001600160a01b038381166001600160a01b0319831681179093556040519116919082907f8be0079c531659141344cd1fd0a4f28419497f9722a3daafe3b4186f6b6457e090600090a35050565b826004810192821562000227579160200282015b828111156200022757825182906200021690826200038a565b5091602001919060010190620001fd565b506200023592915062000239565b5090565b80821115620002355760006200025082826200025a565b5060010162000239565b5080546200026890620002fb565b6000825580601f1062000279575050565b601f0160209004906000526020600020908101906200029991906200029c565b50565b5b808211156200023557600081556001016200029d565b600060208284031215620002c657600080fd5b81516001600160a01b0381168114620002de57600080fd5b9392505050565b634e487b7160e01b600052604160045260246000fd5b600181811c908216806200031057607f821691505b6020821081036200033157634e487b7160e01b600052602260045260246000fd5b50919050565b601f8211156200038557600081815260208120601f850160051c81016020861015620003605750805b601f850160051c820191505b8181101562000381578281556001016200036c565b5050505b505050565b81516001600160401b03811115620003a657620003a6620002e5565b620003be81620003b78454620002fb565b8462000337565b602080601f831160018114620003f65760008415620003dd5750858301515b600019600386901b1c1916600185901b17855562000381565b600085815260208120601f198616915b82811015620004275788860151825594840194600190910190840162000406565b5085821015620004465787850151600019600388901b60f8161c191681555b5050505050600190811b01905550565b611a0380620004666000396000f3fe608060405234801561001057600080fd5b506004361061014d5760003560e01c806370a08231116100c3578063b7127e411161007c578063b7127e41146102c9578063b88d4fde146102dc578063c6b05266146102ef578063c87b56dd14610302578063e985e9c514610315578063f2fde38b1461032857600080fd5b806370a0823114610260578063715018a6146102735780638c2109751461027b5780638da5cb5b1461029d57806395d89b41146102ae578063a22cb465146102b657600080fd5b806318160ddd1161011557806318160ddd146101ef57806323b872dd1461020157806342842e0e1461021457806355f804b3146102275780636352211e1461023a578063691562a01461024d57600080fd5b806301ffc9a71461015257806306fdde031461017a578063081812fc1461018f578063095ea7b3146101ba5780630ad4c4f4146101cf575b600080fd5b61016561016036600461133a565b61033b565b60405190151581526020015b60405180910390f35b61018261038d565b60405161017191906113ae565b6101a261019d3660046113c1565b61041f565b6040516001600160a01b039091168152602001610171565b6101cd6101c83660046113f6565b610448565b005b6101e26101dd3660046113c1565b610457565b6040516101719190611458565b6007545b604051908152602001610171565b6101cd61020f36600461148e565b6105b7565b6101cd61022236600461148e565b610642565b6101cd610235366004611556565b610662565b6101a26102483660046113c1565b610676565b6101f361025b36600461159f565b610681565b6101f361026e3660046115da565b610817565b6101cd61085f565b61028e6102893660046113c1565b610873565b604051610171939291906115f5565b6006546001600160a01b03166101a2565b610182610922565b6101cd6102c4366004611624565b610931565b6101cd6102d73660046115da565b61093c565b6101cd6102ea366004611655565b6109ae565b6009546101a2906001600160a01b031681565b6101826103103660046113c1565b6109c6565b6101656103233660046116d1565b610b5e565b6101cd6103363660046115da565b610b8c565b60006001600160e01b031982166380ac58cd60e01b148061036c57506001600160e01b03198216635b5e139f60e01b145b8061038757506301ffc9a760e01b6001600160e01b03198316145b92915050565b60606000805461039c90611704565b80601f01602080910402602001604051908101604052809291908181526020018280546103c890611704565b80156104155780601f106103ea57610100808354040283529160200191610415565b820191906000526020600020905b8154815290600101906020018083116103f857829003601f168201915b5050505050905090565b600061042a82610bca565b506000828152600460205260409020546001600160a01b0316610387565b610453828233610c03565b5050565b6040805160608082018352600080835260208301819052928201529061047c83610676565b6001600160a01b0316036104ce5760405162461bcd60e51b8152602060048201526014602482015273151bdad95b88191bd95cc81b9bdd08195e1a5cdd60621b60448201526064015b60405180910390fd5b600082815260086020526040908190208151606081019092528054829060ff1660038111156104ff576104ff611420565b600381111561051057610510611420565b81526020016001820154815260200160028201805461052e90611704565b80601f016020809104026020016040519081016040528092919081815260200182805461055a90611704565b80156105a75780601f1061057c576101008083540402835291602001916105a7565b820191906000526020600020905b81548152906001019060200180831161058a57829003601f168201915b5050505050815250509050919050565b6001600160a01b0382166105e157604051633250574960e11b8152600060048201526024016104c5565b60006105ee838333610c10565b9050836001600160a01b0316816001600160a01b03161461063c576040516364283d7b60e01b81526001600160a01b03808616600483015260248201849052821660448201526064016104c5565b50505050565b61065d838383604051806020016040528060008152506109ae565b505050565b61066a610d09565b600e6104538282611784565b600061038782610bca565b6009546000906001600160a01b03163314806106a757506006546001600160a01b031633145b6106e45760405162461bcd60e51b815260206004820152600e60248201526d139bdd08185d5d1a1bdc9a5e995960921b60448201526064016104c5565b60078054600091826106f583611844565b9190505590506107058482610d36565b604051806060016040528084600381111561072257610722611420565b8152602001428152602001600a85600381111561074157610741611420565b600481106107515761075161186b565b0161075b84610d50565b60405160200161076c9291906118f4565b60408051601f198184030181529181529152600083815260086020522081518154829060ff191660018360038111156107a7576107a7611420565b021790555060208201516001820155604082015160028201906107ca9082611784565b5090505080846001600160a01b03167f5716925f2a990bb51e5354134a606547c86dc787be1a2729eef575fd0c2bea1e85604051610808919061192b565b60405180910390a39392505050565b60006001600160a01b038216610843576040516322718ad960e21b8152600060048201526024016104c5565b506001600160a01b031660009081526003602052604090205490565b610867610d09565b6108716000610de3565b565b60086020526000908152604090208054600182015460028301805460ff90931693919261089f90611704565b80601f01602080910402602001604051908101604052809291908181526020018280546108cb90611704565b80156109185780601f106108ed57610100808354040283529160200191610918565b820191906000526020600020905b8154815290600101906020018083116108fb57829003601f168201915b5050505050905083565b60606001805461039c90611704565b610453338383610e35565b610944610d09565b6001600160a01b03811661098c5760405162461bcd60e51b815260206004820152600f60248201526e496e76616c6964206164647265737360881b60448201526064016104c5565b600980546001600160a01b0319166001600160a01b0392909216919091179055565b6109b98484846105b7565b61063c3385858585610ed4565b606060006109d383610676565b6001600160a01b031603610a205760405162461bcd60e51b8152602060048201526014602482015273151bdad95b88191bd95cc81b9bdd08195e1a5cdd60621b60448201526064016104c5565b6000828152600860205260408082208151606081019092528054829060ff166003811115610a5057610a50611420565b6003811115610a6157610a61611420565b815260200160018201548152602001600282018054610a7f90611704565b80601f0160208091040260200160405190810160405280929190818152602001828054610aab90611704565b8015610af85780601f10610acd57610100808354040283529160200191610af8565b820191906000526020600020905b815481529060010190602001808311610adb57829003601f168201915b5050505050815250509050600e610b0e84610d50565b8251600a906003811115610b2457610b24611420565b60048110610b3457610b3461186b565b01604051602001610b4793929190611939565b604051602081830303815290604052915050919050565b6001600160a01b03918216600090815260056020908152604080832093909416825291909152205460ff1690565b610b94610d09565b6001600160a01b038116610bbe57604051631e4fbdf760e01b8152600060048201526024016104c5565b610bc781610de3565b50565b6000818152600260205260408120546001600160a01b03168061038757604051637e27328960e01b8152600481018490526024016104c5565b61065d8383836001610fff565b6000828152600260205260408120546001600160a01b0390811690831615610c3d57610c3d818486611105565b6001600160a01b03811615610c7b57610c5a600085600080610fff565b6001600160a01b038116600090815260036020526040902080546000190190555b6001600160a01b03851615610caa576001600160a01b0385166000908152600360205260409020805460010190555b60008481526002602052604080822080546001600160a01b0319166001600160a01b0389811691821790925591518793918516917fddf252ad1be2c89b69c2b068fc378daa952ba7f163c4a11628f55a4df523b3ef91a4949350505050565b6006546001600160a01b031633146108715760405163118cdaa760e01b81523360048201526024016104c5565b610453828260405180602001604052806000815250611169565b60606000610d5d83611181565b600101905060008167ffffffffffffffff811115610d7d57610d7d6114ca565b6040519080825280601f01601f191660200182016040528015610da7576020820181803683370190505b5090508181016020015b600019016f181899199a1a9b1b9c1cb0b131b232b360811b600a86061a8153600a8504945084610db157509392505050565b600680546001600160a01b038381166001600160a01b0319831681179093556040519116919082907f8be0079c531659141344cd1fd0a4f28419497f9722a3daafe3b4186f6b6457e090600090a35050565b6001600160a01b038216610e6757604051630b61174360e31b81526001600160a01b03831660048201526024016104c5565b6001600160a01b03838116600081815260056020908152604080832094871680845294825291829020805460ff191686151590811790915591519182527f17307eab39ab6107e8899845ad3d59bd9653f200f220920489ca2b5937696c31910160405180910390a3505050565b6001600160a01b0383163b15610ff857604051630a85bd0160e11b81526001600160a01b0384169063150b7a0290610f1690889088908790879060040161197d565b6020604051808303816000875af1925050508015610f51575060408051601f3d908101601f19168201909252610f4e918101906119b0565b60015b610fba573d808015610f7f576040519150601f19603f3d011682016040523d82523d6000602084013e610f84565b606091505b508051600003610fb257604051633250574960e11b81526001600160a01b03851660048201526024016104c5565b805160208201fd5b6001600160e01b03198116630a85bd0160e11b14610ff657604051633250574960e11b81526001600160a01b03851660048201526024016104c5565b505b5050505050565b808061101357506001600160a01b03821615155b156110d557600061102384610bca565b90506001600160a01b0383161580159061104f5750826001600160a01b0316816001600160a01b031614155b801561106257506110608184610b5e565b155b1561108b5760405163a9fbf51f60e01b81526001600160a01b03841660048201526024016104c5565b81156110d35783856001600160a01b0316826001600160a01b03167f8c5be1e5ebec7d5bd14f71427d1e84f3dd0314c0f7b2291e5b200ac8c7c3b92560405160405180910390a45b505b5050600090815260046020526040902080546001600160a01b0319166001600160a01b0392909216919091179055565b611110838383611259565b61065d576001600160a01b03831661113e57604051637e27328960e01b8152600481018290526024016104c5565b60405163177e802f60e01b81526001600160a01b0383166004820152602481018290526044016104c5565b61117383836112bf565b61065d336000858585610ed4565b60008072184f03e93ff9f4daa797ed6e38ed64bf6a1f0160401b83106111c05772184f03e93ff9f4daa797ed6e38ed64bf6a1f0160401b830492506040015b6d04ee2d6d415b85acef810000000083106111ec576d04ee2d6d415b85acef8100000000830492506020015b662386f26fc10000831061120a57662386f26fc10000830492506010015b6305f5e1008310611222576305f5e100830492506008015b612710831061123657612710830492506004015b60648310611248576064830492506002015b600a83106103875760010192915050565b60006001600160a01b038316158015906112b75750826001600160a01b0316846001600160a01b0316148061129357506112938484610b5e565b806112b757506000828152600460205260409020546001600160a01b038481169116145b949350505050565b6001600160a01b0382166112e957604051633250574960e11b8152600060048201526024016104c5565b60006112f783836000610c10565b90506001600160a01b0381161561065d576040516339e3563760e11b8152600060048201526024016104c5565b6001600160e01b031981168114610bc757600080fd5b60006020828403121561134c57600080fd5b813561135781611324565b9392505050565b60005b83811015611379578181015183820152602001611361565b50506000910152565b6000815180845261139a81602086016020860161135e565b601f01601f19169290920160200192915050565b6020815260006113576020830184611382565b6000602082840312156113d357600080fd5b5035919050565b80356001600160a01b03811681146113f157600080fd5b919050565b6000806040838503121561140957600080fd5b611412836113da565b946020939093013593505050565b634e487b7160e01b600052602160045260246000fd5b6004811061145457634e487b7160e01b600052602160045260246000fd5b9052565b6020815261146a602082018351611436565b60208201516040820152600060408301516060808401526112b76080840182611382565b6000806000606084860312156114a357600080fd5b6114ac846113da565b92506114ba602085016113da565b9150604084013590509250925092565b634e487b7160e01b600052604160045260246000fd5b600067ffffffffffffffff808411156114fb576114fb6114ca565b604051601f8501601f19908116603f01168101908282118183101715611523576115236114ca565b8160405280935085815286868601111561153c57600080fd5b858560208301376000602087830101525050509392505050565b60006020828403121561156857600080fd5b813567ffffffffffffffff81111561157f57600080fd5b8201601f8101841361159057600080fd5b6112b7848235602084016114e0565b600080604083850312156115b257600080fd5b6115bb836113da565b91506020830135600481106115cf57600080fd5b809150509250929050565b6000602082840312156115ec57600080fd5b611357826113da565b6115ff8185611436565b82602082015260606040820152600061161b6060830184611382565b95945050505050565b6000806040838503121561163757600080fd5b611640836113da565b9150602083013580151581146115cf57600080fd5b6000806000806080858703121561166b57600080fd5b611674856113da565b9350611682602086016113da565b925060408501359150606085013567ffffffffffffffff8111156116a557600080fd5b8501601f810187136116b657600080fd5b6116c5878235602084016114e0565b91505092959194509250565b600080604083850312156116e457600080fd5b6116ed836113da565b91506116fb602084016113da565b90509250929050565b600181811c9082168061171857607f821691505b60208210810361173857634e487b7160e01b600052602260045260246000fd5b50919050565b601f82111561065d57600081815260208120601f850160051c810160208610156117655750805b601f850160051c820191505b81811015610ff657828155600101611771565b815167ffffffffffffffff81111561179e5761179e6114ca565b6117b2816117ac8454611704565b8461173e565b602080601f8311600181146117e757600084156117cf5750858301515b600019600386901b1c1916600185901b178555610ff6565b600085815260208120601f198616915b82811015611816578886015182559484019460019091019084016117f7565b50858210156118345787850151600019600388901b60f8161c191681555b5050505050600190811b01905550565b60006001820161186457634e487b7160e01b600052601160045260246000fd5b5060010190565b634e487b7160e01b600052603260045260246000fd5b6000815461188e81611704565b600182811680156118a657600181146118bb576118ea565b60ff19841687528215158302870194506118ea565b8560005260208060002060005b858110156118e15781548a8201529084019082016118c8565b50505082870194505b5050505092915050565b60006119008285611881565b6520426f78202360d01b8152835161191f81600684016020880161135e565b01600601949350505050565b602081016103878284611436565b60006119458286611881565b845161195581836020890161135e565b673f7261726974793d60c01b91019081526119736008820185611881565b9695505050505050565b6001600160a01b038581168252841660208201526040810183905260806060820181905260009061197390830184611382565b6000602082840312156119c257600080fd5b81516113578161132456fea2646970667358221220ef5b57fbe0828a6c261a129fd9e0081a43fc4d5d9c7f523ca6e2f742782ae41264736f6c6343000814003368747470733a2f2f70726f6f662d6f662d6c75636b2e6578616d706c652e636f6d2f6e66742f",
  "linkReferences": {},
  "deployedLinkReferences": {}
}